{
  "abi": [
    {
      "inputs": [
        {
          "internalType": "address",
          "name": "_router",
          "type": "address"
        },
        {
          "internalType": "address",
          "name": "_linkToken",
          "type": "address"
        },
        {
          "internalType": "address",
          "name": "_bnmToken",
          "type": "address"
        }
      ],
      "stateMutability": "nonpayable",
      "type": "constructor"
    },
    {
      "inputs": [
        {
          "internalType": "address",
          "name": "router",
          "type": "address"
        }
      ],
      "name": "InvalidRouter",
      "type": "error"
    },
    {
      "anonymous": false,
      "inputs": [
        {
          "indexed": true,
          "internalType": "bytes32",
          "name": "messageId",
          "type": "bytes32"
        }
      ],
      "name": "MessageHopped",
      "type": "event"
    },
    {
      "anonymous": false,
      "inputs": [
        {
          "indexed": true,
          "internalType": "bytes32",
          "name": "messageId",
          "type": "bytes32"
        }
      ],
      "name": "MessageSent",
      "type": "event"
    },
    {
      "inputs": [
        {
          "components": [
            {
              "internalType": "bytes32",
              "name": "messageId",
              "type": "bytes32"
            },
            {
              "internalType": "uint64",
              "name": "sourceChainSelector",
              "type": "uint64"
            },
            {
              "internalType": "bytes",
              "name": "sender",
              "type": "bytes"
            },
            {
              "internalType": "bytes",
              "name": "data",
              "type": "bytes"
            },
            {
              "components": [
                {
                  "internalType": "address",
                  "name": "token",
                  "type": "address"
                },
                {
                  "internalType": "uint256",
                  "name": "amount",
                  "type": "uint256"
                }
              ],
              "internalType": "struct Client.EVMTokenAmount[]",
              "name": "destTokenAmounts",
              "type": "tuple[]"
            }
          ],
          "internalType": "struct Client.Any2EVMMessage",
          "name": "message",
          "type": "tuple"
        }
      ],
      "name": "ccipReceive",
      "outputs": [],
      "stateMutability": "nonpayable",
      "type": "function"
    },
    {
      "inputs": [
        {
          "internalType": "uint64",
          "name": "chainSelector",
          "type": "uint64"
        },
        {
          "internalType": "address",
          "name": "receiver",
          "type": "address"
        },
        {
          "internalType": "uint256",
          "name": "amount",
          "type": "uint256"
        },
        {
          "internalType": "uint256",
          "name": "gasLimit",
          "type": "uint256"
        },
        {
          "internalType": "uint64",
          "name": "destinationChainSelector",
          "type": "uint64"
        },
        {
          "internalType": "address",
          "name": "destinationReceiver",
          "type": "address"
        }
      ],
      "name": "getFee",
      "outputs": [
        {
          "internalType": "uint256",
          "name": "fee",
          "type": "uint256"
        }
      ],
      "stateMutability": "view",
      "type": "function"
    },
    {
      "inputs": [],
      "name": "getRouter",
      "outputs": [
        {
          "internalType": "address",
          "name": "",
          "type": "address"
        }
      ],
      "stateMutability": "view",
      "type": "function"
    },
    {
      "inputs": [
        {
          "internalType": "uint64",
          "name": "chainSelector",
          "type": "uint64"
        },
        {
          "internalType": "address",
          "name": "receiver",
          "type": "address"
        },
        {
          "internalType": "uint256",
          "name": "amount",
          "type": "uint256"
        },
        {
          "internalType": "uint256",
          "name": "gasLimit",
          "type": "uint256"
        },
        {
          "internalType": "uint64",
          "name": "destinationChainSelector",
          "type": "uint64"
        },
        {
          "internalType": "address",
          "name": "destinationReceiver",
          "type": "address"
        }
      ],
      "name": "sendMessage",
      "outputs": [
        {
          "internalType": "bytes32",
          "name": "",
          "type": "bytes32"
        }
      ],
      "stateMutability": "nonpayable",
      "type": "function"
    },
    {
      "inputs": [
        {
          "internalType": "bytes4",
          "name": "interfaceId",
          "type": "bytes4"
        }
      ],
      "name": "supportsInterface",
      "outputs": [
        {
          "internalType": "bool",
          "name": "",
          "type": "bool"
        }
      ],
      "stateMutability": "pure",
      "type": "function"
    },
    {
      "stateMutability": "payable",
      "type": "receive"
    }
  ],
  "bytecode": {
    "object": "0x61010060405234801561001157600080fd5b50604051610f7f380380610f7f833981016040819052610030916100a5565b828282826001600160a01b038116610062576040516335fdcccd60e21b81526000600482015260240160405180910390fd5b6001600160a01b0390811660805292831660a05290821660c0521660e052506100e8915050565b80516001600160a01b03811681146100a057600080fd5b919050565b6000806000606084860312156100ba57600080fd5b6100c384610089565b92506100d160208501610089565b91506100df60408501610089565b90509250925092565b60805160a05160c05160e051610e2d6101526000396000818161054e015261073c0152600081816103d50152818161049a01526107e60152600081816103250152818161046b0152818161051f01526105d3015260008181610119015261029d0152610e2d6000f3fe60806040526004361061004e5760003560e01c806301ffc9a71461005a5780633884d3751461008f57806340425c8e146100bd57806385572ffb146100dd578063b0f479a1146100ff57600080fd5b3661005557005b600080fd5b34801561006657600080fd5b5061007a6100753660046108a7565b610143565b60405190151581526020015b60405180910390f35b34801561009b57600080fd5b506100af6100aa366004610913565b61017a565b604051908152602001610086565b3480156100c957600080fd5b506100af6100d8366004610913565b6101ef565b3480156100e957600080fd5b506100fd6100f8366004610983565b610292565b005b34801561010b57600080fd5b506040516001600160a01b037f0000000000000000000000000000000000000000000000000000000000000000168152602001610086565b60006001600160e01b031982166385572ffb60e01b148061017457506001600160e01b031982166301ffc9a760e01b145b92915050565b604080516060808201835267ffffffffffffffff85168083526001600160a01b0385811660208086019182529486018a815286519586019390935251168385015251828201528251808303909101815260809091019091526000906101e288888888856102f5565b9998505050505050505050565b604080516060808201835267ffffffffffffffff85168083526001600160a01b0385811660208086019182529486018a815286519586019390935251168385015251828201528251808303909101815260809091019091526000908161025889898989866103a9565b60405190915081907f54791b38f3859327992a1ca0590ad3c0f08feba98d1a4f56ab0dca74d203392a90600090a298975050505050505050565b336001600160a01b037f000000000000000000000000000000000000000000000000000000000000000016146102e1576040516335fdcccd60e21b815233600482015260240160405180910390fd5b6102f26102ed82610b6e565b610659565b50565b6102fd61086f565b600061030b868487876106e5565b6040516320487ded60e01b81529092506001600160a01b037f000000000000000000000000000000000000000000000000000000000000000016906320487ded9061035c908a908690600401610c61565b602060405180830381865afa158015610379573d6000803e3d6000fd5b505050506040513d601f19601f8201168201806040525081019061039d9190610d3b565b90509550959350505050565b60008060006103bb88888888886102f5565b6040516370a0823160e01b815230600482015291935091507f00000000000000000000000000000000000000000000000000000000000000006001600160a01b0316906370a0823190602401602060405180830381865afa158015610424573d6000803e3d6000fd5b505050506040513d601f19601f820116820180604052508101906104489190610d3b565b81111561045457600080fd5b60405163095ea7b360e01b81526001600160a01b037f000000000000000000000000000000000000000000000000000000000000000081166004830152602482018390527f0000000000000000000000000000000000000000000000000000000000000000169063095ea7b3906044016020604051808303816000875af11580156104e3573d6000803e3d6000fd5b505050506040513d601f19601f820116820180604052508101906105079190610d54565b5060405163095ea7b360e01b81526001600160a01b037f000000000000000000000000000000000000000000000000000000000000000081166004830152602482018890527f0000000000000000000000000000000000000000000000000000000000000000169063095ea7b3906044016020604051808303816000875af1158015610597573d6000803e3d6000fd5b505050506040513d601f19601f820116820180604052508101906105bb9190610d54565b506040516396f4e9f960e01b81526001600160a01b037f000000000000000000000000000000000000000000000000000000000000000016906396f4e9f99061060a908b908690600401610c61565b6020604051808303816000875af1158015610629573d6000803e3d6000fd5b505050506040513d601f19601f8201168201806040525081019061064d9190610d3b565b98975050505050505050565b600081606001518060200190518101906106739190610d76565b6040805160006020820181905292935001604051602081830303815290604052905060006106b18360000151846020015185604001516000866103a9565b60405190915081907fbc0dfa58824685d6f99881dc543092afc8002524c494397b5517815689a58aab90600090a250505050565b6106ed61086f565b604080516001808252818301909252600091816020015b6040805180820190915260008082526020820152815260200190600190039081610704579050509050600060405180604001604052807f00000000000000000000000000000000000000000000000000000000000000006001600160a01b03168152602001868152509050808260008151811061078357610783610de1565b602090810291909101810191909152604080518082018252868152600092810192909252805160a081019091526001600160a01b03891660c08201528060e0810160405160208183030381529060405281526020018881526020018481526020017f00000000000000000000000000000000000000000000000000000000000000006001600160a01b03168152602001610861836040805182516024820152602092830151151560448083019190915282518083039091018152606490910190915290810180516001600160e01b03166397a657c960e01b17905290565b905298975050505050505050565b6040518060a0016040528060608152602001606081526020016060815260200160006001600160a01b03168152602001606081525090565b6000602082840312156108b957600080fd5b81356001600160e01b0319811681146108d157600080fd5b9392505050565b67ffffffffffffffff811681146102f257600080fd5b80356108f9816108d8565b919050565b6001600160a01b03811681146102f257600080fd5b60008060008060008060c0878903121561092c57600080fd5b8635610937816108d8565b95506020870135610947816108fe565b945060408701359350606087013592506080870135610965816108d8565b915060a0870135610975816108fe565b809150509295509295509295565b60006020828403121561099557600080fd5b813567ffffffffffffffff8111156109ac57600080fd5b820160a081850312156108d157600080fd5b634e487b7160e01b600052604160045260246000fd5b6040805190810167ffffffffffffffff811182821017156109f7576109f76109be565b60405290565b60405160a0810167ffffffffffffffff811182821017156109f7576109f76109be565b604051601f8201601f1916810167ffffffffffffffff81118282101715610a4957610a496109be565b604052919050565b600082601f830112610a6257600080fd5b813567ffffffffffffffff811115610a7c57610a7c6109be565b610a8f601f8201601f1916602001610a20565b818152846020838601011115610aa457600080fd5b816020850160208301376000918101602001919091529392505050565b600082601f830112610ad257600080fd5b8135602067ffffffffffffffff821115610aee57610aee6109be565b610afc818360051b01610a20565b82815260069290921b84018101918181019086841115610b1b57600080fd5b8286015b84811015610b635760408189031215610b385760008081fd5b610b406109d4565b8135610b4b816108fe565b81528185013585820152835291830191604001610b1f565b509695505050505050565b600060a08236031215610b8057600080fd5b610b886109fd565b82358152610b98602084016108ee565b6020820152604083013567ffffffffffffffff80821115610bb857600080fd5b610bc436838701610a51565b60408401526060850135915080821115610bdd57600080fd5b610be936838701610a51565b60608401526080850135915080821115610c0257600080fd5b50610c0f36828601610ac1565b60808301525092915050565b6000815180845260005b81811015610c4157602081850181015186830182015201610c25565b506000602082860101526020601f19601f83011685010191505092915050565b6000604067ffffffffffffffff8516835260208181850152845160a083860152610c8e60e0860182610c1b565b905081860151603f1980878403016060880152610cab8383610c1b565b88860151888203830160808a01528051808352908601945060009350908501905b80841015610cfe57845180516001600160a01b0316835286015186830152938501936001939093019290860190610ccc565b5060608901516001600160a01b031660a08901526080890151888203830160c08a01529550610d2d8187610c1b565b9a9950505050505050505050565b600060208284031215610d4d57600080fd5b5051919050565b600060208284031215610d6657600080fd5b815180151581146108d157600080fd5b600060608284031215610d8857600080fd5b6040516060810181811067ffffffffffffffff82111715610dab57610dab6109be565b6040528251610db9816108d8565b81526020830151610dc9816108fe565b60208201526040928301519281019290925250919050565b634e487b7160e01b600052603260045260246000fdfea2646970667358221220d75fb60acc6c3c728767e0f5784096294567896d557524ed8c752f8cb901ba4864736f6c63430008130033",
    "linkReferences": {}
  },
  "methodIdentifiers": {
    "ccipReceive((bytes32,uint64,bytes,bytes,(address,uint256)[]))": "85572ffb",
    "getFee(uint64,address,uint256,uint256,uint64,address)": "3884d375",
    "getRouter()": "b0f479a1",
    "sendMessage(uint64,address,uint256,uint256,uint64,address)": "40425c8e",
    "supportsInterface(bytes4)": "01ffc9a7"
  },
  "id": 16
}