{
  "abi": [
    {
      "inputs": [
        {
          "internalType": "address",
          "name": "_router",
          "type": "address"
        },
        {
          "internalType": "address",
          "name": "_linkToken",
          "type": "address"
        },
        {
          "internalType": "address",
          "name": "_bnmToken",
          "type": "address"
        }
      ],
      "stateMutability": "nonpayable",
      "type": "constructor"
    },
    {
      "inputs": [
        {
          "internalType": "address",
          "name": "router",
          "type": "address"
        }
      ],
      "name": "InvalidRouter",
      "type": "error"
    },
    {
      "anonymous": false,
      "inputs": [
        {
          "indexed": false,
          "internalType": "bytes32",
          "name": "messageId",
          "type": "bytes32"
        }
      ],
      "name": "MessageHopped",
      "type": "event"
    },
    {
      "inputs": [
        {
          "components": [
            {
              "internalType": "bytes32",
              "name": "messageId",
              "type": "bytes32"
            },
            {
              "internalType": "uint64",
              "name": "sourceChainSelector",
              "type": "uint64"
            },
            {
              "internalType": "bytes",
              "name": "sender",
              "type": "bytes"
            },
            {
              "internalType": "bytes",
              "name": "data",
              "type": "bytes"
            },
            {
              "components": [
                {
                  "internalType": "address",
                  "name": "token",
                  "type": "address"
                },
                {
                  "internalType": "uint256",
                  "name": "amount",
                  "type": "uint256"
                }
              ],
              "internalType": "struct Client.EVMTokenAmount[]",
              "name": "destTokenAmounts",
              "type": "tuple[]"
            }
          ],
          "internalType": "struct Client.Any2EVMMessage",
          "name": "message",
          "type": "tuple"
        }
      ],
      "name": "ccipReceive",
      "outputs": [],
      "stateMutability": "nonpayable",
      "type": "function"
    },
    {
      "inputs": [],
      "name": "getRouter",
      "outputs": [
        {
          "internalType": "address",
          "name": "",
          "type": "address"
        }
      ],
      "stateMutability": "view",
      "type": "function"
    },
    {
      "inputs": [
        {
          "internalType": "bytes4",
          "name": "interfaceId",
          "type": "bytes4"
        }
      ],
      "name": "supportsInterface",
      "outputs": [
        {
          "internalType": "bool",
          "name": "",
          "type": "bool"
        }
      ],
      "stateMutability": "pure",
      "type": "function"
    },
    {
      "stateMutability": "payable",
      "type": "receive"
    }
  ],
  "bytecode": {
    "object": "0x61010060405234801561001157600080fd5b50604051610cf6380380610cf68339810160408190526100309161009e565b826001600160a01b03811661005f576040516335fdcccd60e21b81526000600482015260240160405180910390fd5b6001600160a01b0390811660805292831660a05290821660c0521660e0526100e1565b80516001600160a01b038116811461009957600080fd5b919050565b6000806000606084860312156100b357600080fd5b6100bc84610082565b92506100ca60208501610082565b91506100d860408501610082565b90509250925092565b60805160a05160c05160e051610bac61014a600039600081816103f201526105890152600081816102790152818161033e015261063e0152600081816101d40152818161030f015281816103c3015261047a01526000818160b501526101210152610bac6000f3fe6080604052600436106100385760003560e01c806301ffc9a71461004457806385572ffb14610079578063b0f479a11461009b57600080fd5b3661003f57005b600080fd5b34801561005057600080fd5b5061006461005f36600461068d565b6100df565b60405190151581526020015b60405180910390f35b34801561008557600080fd5b506100996100943660046106be565b610116565b005b3480156100a757600080fd5b506040516001600160a01b037f0000000000000000000000000000000000000000000000000000000000000000168152602001610070565b60006001600160e01b031982166385572ffb60e01b148061011057506001600160e01b031982166301ffc9a760e01b145b92915050565b336001600160a01b037f00000000000000000000000000000000000000000000000000000000000000001614610165576040516335fdcccd60e21b815233600482015260240160405180910390fd5b610176610171826108e4565b610179565b50565b600081606001518060200190518101906101939190610991565b90506101ac8160400151826060015183608001516101b1565b505050565b6000806101ce8460405180602001604052806000815250856104ff565b905060007f00000000000000000000000000000000000000000000000000000000000000006001600160a01b03166320487ded87846040518363ffffffff1660e01b8152600401610220929190610a38565b602060405180830381865afa15801561023d573d6000803e3d6000fd5b505050506040513d601f19601f820116820180604052508101906102619190610b12565b6040516370a0823160e01b81523060048201529091507f00000000000000000000000000000000000000000000000000000000000000006001600160a01b0316906370a0823190602401602060405180830381865afa1580156102c8573d6000803e3d6000fd5b505050506040513d601f19601f820116820180604052508101906102ec9190610b12565b8111156102f857600080fd5b60405163095ea7b360e01b81526001600160a01b037f000000000000000000000000000000000000000000000000000000000000000081166004830152602482018390527f0000000000000000000000000000000000000000000000000000000000000000169063095ea7b3906044016020604051808303816000875af1158015610387573d6000803e3d6000fd5b505050506040513d601f19601f820116820180604052508101906103ab9190610b2b565b5060405163095ea7b360e01b81526001600160a01b037f000000000000000000000000000000000000000000000000000000000000000081166004830152602482018690527f0000000000000000000000000000000000000000000000000000000000000000169063095ea7b3906044016020604051808303816000875af115801561043b573d6000803e3d6000fd5b505050506040513d601f19601f8201168201806040525081019061045f9190610b2b565b506040516396f4e9f960e01b81526000906001600160a01b037f000000000000000000000000000000000000000000000000000000000000000016906396f4e9f9906104b1908a908790600401610a38565b6020604051808303816000875af11580156104d0573d6000803e3d6000fd5b505050506040513d601f19601f820116820180604052508101906104f49190610b12565b979650505050505050565b61053a6040518060a0016040528060608152602001606081526020016060815260200160006001600160a01b03168152602001606081525090565b604080516001808252818301909252600091816020015b6040805180820190915260008082526020820152815260200190600190039081610551579050509050600060405180604001604052807f00000000000000000000000000000000000000000000000000000000000000006001600160a01b0316815260200185815250905080826000815181106105d0576105d0610b4d565b60209081029190910101526040805160a081019091526001600160a01b03871660c08201526000908060e081016040516020818303038152906040528152602001876040516020016106229190610b63565b60405160208183030381529060405281526020018481526020017f00000000000000000000000000000000000000000000000000000000000000006001600160a01b031681526020016040518060200160405280600081525081525090508093505050509392505050565b60006020828403121561069f57600080fd5b81356001600160e01b0319811681146106b757600080fd5b9392505050565b6000602082840312156106d057600080fd5b813567ffffffffffffffff8111156106e757600080fd5b820160a081850312156106b757600080fd5b634e487b7160e01b600052604160045260246000fd5b6040805190810167ffffffffffffffff81118282101715610732576107326106f9565b60405290565b60405160a0810167ffffffffffffffff81118282101715610732576107326106f9565b604051601f8201601f1916810167ffffffffffffffff81118282101715610784576107846106f9565b604052919050565b67ffffffffffffffff8116811461017657600080fd5b80356107ad8161078c565b919050565b600082601f8301126107c357600080fd5b813567ffffffffffffffff8111156107dd576107dd6106f9565b6107f0601f8201601f191660200161075b565b81815284602083860101111561080557600080fd5b816020850160208301376000918101602001919091529392505050565b6001600160a01b038116811461017657600080fd5b600082601f83011261084857600080fd5b8135602067ffffffffffffffff821115610864576108646106f9565b610872818360051b0161075b565b82815260069290921b8401810191818101908684111561089157600080fd5b8286015b848110156108d957604081890312156108ae5760008081fd5b6108b661070f565b81356108c181610822565b81528185013585820152835291830191604001610895565b509695505050505050565b600060a082360312156108f657600080fd5b6108fe610738565b8235815261090e602084016107a2565b6020820152604083013567ffffffffffffffff8082111561092e57600080fd5b61093a368387016107b2565b6040840152606085013591508082111561095357600080fd5b61095f368387016107b2565b6060840152608085013591508082111561097857600080fd5b5061098536828601610837565b60808301525092915050565b600060a082840312156109a357600080fd5b6109ab610738565b825181526020830151602082015260408301516109c78161078c565b604082015260608301516109da81610822565b60608201526080928301519281019290925250919050565b6000815180845260005b81811015610a18576020818501810151868301820152016109fc565b506000602082860101526020601f19601f83011685010191505092915050565b6000604067ffffffffffffffff8516835260208181850152845160a083860152610a6560e08601826109f2565b905081860151603f1980878403016060880152610a8283836109f2565b88860151888203830160808a01528051808352908601945060009350908501905b80841015610ad557845180516001600160a01b0316835286015186830152938501936001939093019290860190610aa3565b5060608901516001600160a01b031660a08901526080890151888203830160c08a01529550610b0481876109f2565b9a9950505050505050505050565b600060208284031215610b2457600080fd5b5051919050565b600060208284031215610b3d57600080fd5b815180151581146106b757600080fd5b634e487b7160e01b600052603260045260246000fd5b6020815260006106b760208301846109f256fea2646970667358221220ac24da7c8e49fcfff7cf30d21b51572f0b8478056116d7dfba6f5f979969eed664736f6c63430008130033",
    "linkReferences": {}
  },
  "methodIdentifiers": {
    "ccipReceive((bytes32,uint64,bytes,bytes,(address,uint256)[]))": "85572ffb",
    "getRouter()": "b0f479a1",
    "supportsInterface(bytes4)": "01ffc9a7"
  },
  "id": 29
}