{
  "abi": [
    {
      "inputs": [],
      "name": "decodeStruct",
      "outputs": [
        {
          "components": [
            {
              "internalType": "uint64",
              "name": "destinationChainSelector",
              "type": "uint64"
            },
            {
              "internalType": "address",
              "name": "receiver",
              "type": "address"
            },
            {
              "internalType": "address",
              "name": "token",
              "type": "address"
            },
            {
              "internalType": "uint256",
              "name": "amount",
              "type": "uint256"
            },
            {
              "internalType": "address",
              "name": "feeToken",
              "type": "address"
            }
          ],
          "internalType": "struct EncodeStruct.Destination",
          "name": "",
          "type": "tuple"
        }
      ],
      "stateMutability": "view",
      "type": "function"
    },
    {
      "inputs": [],
      "name": "encodeStruct",
      "outputs": [
        {
          "internalType": "bytes",
          "name": "",
          "type": "bytes"
        }
      ],
      "stateMutability": "nonpayable",
      "type": "function"
    },
    {
      "inputs": [],
      "name": "structBytes",
      "outputs": [
        {
          "internalType": "bytes",
          "name": "",
          "type": "bytes"
        }
      ],
      "stateMutability": "view",
      "type": "function"
    }
  ],
  "bytecode": {
    "object": "0x608060405234801561001057600080fd5b506105f4806100206000396000f3fe608060405234801561001057600080fd5b50600436106100415760003560e01c806301e941a3146100465780634cf63328146100645780636892371714610079575b600080fd5b61004e610081565b60405161005b9190610312565b60405180910390f35b61006c6101b6565b60405161005b9190610360565b61004e610284565b6040805160a08101825267de41ba4fc9d91ad9815273779877a7b0d9e8603169ddbd7836e478b462478960208083019190915273097d90c9d3e0b50ca60e1ae45f6a81010f9fb53482840152670de0b6b3a764000060608381019190915273fd57b4ddbf88a4e07ff4e34c487b99af2fe82a056080840152925161010791839101610360565b60405160208183030381529060405260009081610124919061044f565b5060008054610132906103c6565b80601f016020809104026020016040519081016040528092919081815260200182805461015e906103c6565b80156101ab5780601f10610180576101008083540402835291602001916101ab565b820191906000526020600020905b81548152906001019060200180831161018e57829003601f168201915b505050505091505090565b6040805160a081018252600080825260208201819052918101829052606081018290526080810191909152600080546101ee906103c6565b80601f016020809104026020016040519081016040528092919081815260200182805461021a906103c6565b80156102675780601f1061023c57610100808354040283529160200191610267565b820191906000526020600020905b81548152906001019060200180831161024a57829003601f168201915b505050505080602001905181019061027f919061052b565b905090565b60008054610291906103c6565b80601f01602080910402602001604051908101604052809291908181526020018280546102bd906103c6565b801561030a5780601f106102df5761010080835404028352916020019161030a565b820191906000526020600020905b8154815290600101906020018083116102ed57829003601f168201915b505050505081565b600060208083528351808285015260005b8181101561033f57858101830151858201604001528201610323565b506000604082860101526040601f19601f8301168501019250505092915050565b815167ffffffffffffffff1681526020808301516001600160a01b039081169183019190915260408084015182169083015260608084015190830152608092830151169181019190915260a00190565b634e487b7160e01b600052604160045260246000fd5b600181811c908216806103da57607f821691505b6020821081036103fa57634e487b7160e01b600052602260045260246000fd5b50919050565b601f82111561044a57600081815260208120601f850160051c810160208610156104275750805b601f850160051c820191505b8181101561044657828155600101610433565b5050505b505050565b815167ffffffffffffffff811115610469576104696103b0565b61047d8161047784546103c6565b84610400565b602080601f8311600181146104b2576000841561049a5750858301515b600019600386901b1c1916600185901b178555610446565b600085815260208120601f198616915b828110156104e1578886015182559484019460019091019084016104c2565b50858210156104ff5787850151600019600388901b60f8161c191681555b5050505050600190811b01905550565b80516001600160a01b038116811461052657600080fd5b919050565b600060a0828403121561053d57600080fd5b60405160a0810167ffffffffffffffff8282108183111715610561576105616103b0565b8160405284519150808216821461057757600080fd5b5081526105866020840161050f565b60208201526105976040840161050f565b6040820152606083015160608201526105b26080840161050f565b6080820152939250505056fea2646970667358221220ea380bdb0da626417978aebffd400c7675953ffa839357337085626757ac54eb64736f6c63430008130033",
    "linkReferences": {}
  },
  "methodIdentifiers": {
    "decodeStruct()": "4cf63328",
    "encodeStruct()": "01e941a3",
    "structBytes()": "68923717"
  },
  "id": 8
}