{
  "abi": [
    {
      "inputs": [
        {
          "internalType": "address",
          "name": "_router",
          "type": "address"
        },
        {
          "internalType": "address",
          "name": "_link",
          "type": "address"
        },
        {
          "internalType": "address",
          "name": "_bnmToken",
          "type": "address"
        }
      ],
      "stateMutability": "nonpayable",
      "type": "constructor"
    },
    {
      "anonymous": false,
      "inputs": [
        {
          "indexed": false,
          "internalType": "bytes32",
          "name": "messageId",
          "type": "bytes32"
        }
      ],
      "name": "MessageSent",
      "type": "event"
    },
    {
      "inputs": [
        {
          "internalType": "uint64",
          "name": "intermediaryChainSelector",
          "type": "uint64"
        },
        {
          "internalType": "address",
          "name": "intermediaryReceiver",
          "type": "address"
        },
        {
          "internalType": "uint256",
          "name": "amount",
          "type": "uint256"
        },
        {
          "internalType": "uint256",
          "name": "intermediaryChainGasLimit",
          "type": "uint256"
        },
        {
          "internalType": "uint64",
          "name": "destinationChainSelector",
          "type": "uint64"
        },
        {
          "internalType": "address",
          "name": "destinationReceiver",
          "type": "address"
        }
      ],
      "name": "_sendMessage",
      "outputs": [
        {
          "internalType": "bytes32",
          "name": "",
          "type": "bytes32"
        }
      ],
      "stateMutability": "nonpayable",
      "type": "function"
    },
    {
      "stateMutability": "payable",
      "type": "receive"
    }
  ],
  "bytecode": {
    "object": "0x60e060405234801561001057600080fd5b5060405161097338038061097383398101604081905261002f91610068565b6001600160a01b0392831660805290821660a0521660c0526100ab565b80516001600160a01b038116811461006357600080fd5b919050565b60008060006060848603121561007d57600080fd5b6100868461004c565b92506100946020850161004c565b91506100a26040850161004c565b90509250925092565b60805160a05160c051610870610103600039600081816102ec01526104c101526000818161017301528181610238015261058b01526000818160ce01528181610209015281816102bd015261037401526108706000f3fe6080604052600436106100225760003560e01c80631ab8f4fc1461002e57600080fd5b3661002957005b600080fd5b34801561003a57600080fd5b5061004e610049366004610649565b610060565b60405190815260200160405180910390f35b604080516060808201835267ffffffffffffffff85168083526001600160a01b0385811660208086019182529486018a81528651958601939093525116838501525182820152825180830390910181526080909101909152600090816100c888838989610437565b905060007f00000000000000000000000000000000000000000000000000000000000000006001600160a01b03166320487ded8b846040518363ffffffff1660e01b815260040161011a9291906106f5565b602060405180830381865afa158015610137573d6000803e3d6000fd5b505050506040513d601f19601f8201168201806040525081019061015b91906107cf565b6040516370a0823160e01b81523060048201529091507f00000000000000000000000000000000000000000000000000000000000000006001600160a01b0316906370a0823190602401602060405180830381865afa1580156101c2573d6000803e3d6000fd5b505050506040513d601f19601f820116820180604052508101906101e691906107cf565b8111156101f257600080fd5b60405163095ea7b360e01b81526001600160a01b037f000000000000000000000000000000000000000000000000000000000000000081166004830152602482018390527f0000000000000000000000000000000000000000000000000000000000000000169063095ea7b3906044016020604051808303816000875af1158015610281573d6000803e3d6000fd5b505050506040513d601f19601f820116820180604052508101906102a591906107e8565b5060405163095ea7b360e01b81526001600160a01b037f000000000000000000000000000000000000000000000000000000000000000081166004830152602482018a90527f0000000000000000000000000000000000000000000000000000000000000000169063095ea7b3906044016020604051808303816000875af1158015610335573d6000803e3d6000fd5b505050506040513d601f19601f8201168201806040525081019061035991906107e8565b506040516396f4e9f960e01b81526000906001600160a01b037f000000000000000000000000000000000000000000000000000000000000000016906396f4e9f9906103ab908e9087906004016106f5565b6020604051808303816000875af11580156103ca573d6000803e3d6000fd5b505050506040513d601f19601f820116820180604052508101906103ee91906107cf565b90507f54791b38f3859327992a1ca0590ad3c0f08feba98d1a4f56ab0dca74d203392a8160405161042191815260200190565b60405180910390a19a9950505050505050505050565b6104726040518060a0016040528060608152602001606081526020016060815260200160006001600160a01b03168152602001606081525090565b604080516001808252818301909252600091816020015b6040805180820190915260008082526020820152815260200190600190039081610489579050509050600060405180604001604052807f00000000000000000000000000000000000000000000000000000000000000006001600160a01b03168152602001868152509050808260008151811061050857610508610811565b6020908102919091018101919091526040805180820182528681526000928101839052815160a081019092526001600160a01b038a1660c083015291908060e0810160405160208183030381529060405281526020018960405160200161056f9190610827565b60405160208183030381529060405281526020018581526020017f00000000000000000000000000000000000000000000000000000000000000006001600160a01b03168152602001610606846040805182516024820152602092830151151560448083019190915282518083039091018152606490910190915290810180516001600160e01b03166397a657c960e01b17905290565b90529998505050505050505050565b803567ffffffffffffffff8116811461062d57600080fd5b919050565b80356001600160a01b038116811461062d57600080fd5b60008060008060008060c0878903121561066257600080fd5b61066b87610615565b955061067960208801610632565b9450604087013593506060870135925061069560808801610615565b91506106a360a08801610632565b90509295509295509295565b6000815180845260005b818110156106d5576020818501810151868301820152016106b9565b506000602082860101526020601f19601f83011685010191505092915050565b6000604067ffffffffffffffff8516835260208181850152845160a08386015261072260e08601826106af565b905081860151603f198087840301606088015261073f83836106af565b88860151888203830160808a01528051808352908601945060009350908501905b8084101561079257845180516001600160a01b0316835286015186830152938501936001939093019290860190610760565b5060608901516001600160a01b031660a08901526080890151888203830160c08a015295506107c181876106af565b9a9950505050505050505050565b6000602082840312156107e157600080fd5b5051919050565b6000602082840312156107fa57600080fd5b8151801515811461080a57600080fd5b9392505050565b634e487b7160e01b600052603260045260246000fd5b60208152600061080a60208301846106af56fea26469706673582212202e2a9569b41127d81f25a95a344acf74cad69452031c7c44ccccf202038af73964736f6c63430008130033",
    "linkReferences": {}
  },
  "methodIdentifiers": {
    "_sendMessage(uint64,address,uint256,uint256,uint64,address)": "1ab8f4fc"
  },
  "id": 14
}