{
  "abi": [
    {
      "inputs": [
        {
          "internalType": "address",
          "name": "_router",
          "type": "address"
        },
        {
          "internalType": "address",
          "name": "_linkToken",
          "type": "address"
        },
        {
          "internalType": "address",
          "name": "_bnmToken",
          "type": "address"
        }
      ],
      "stateMutability": "nonpayable",
      "type": "constructor"
    },
    {
      "inputs": [
        {
          "internalType": "address",
          "name": "router",
          "type": "address"
        }
      ],
      "name": "InvalidRouter",
      "type": "error"
    },
    {
      "anonymous": false,
      "inputs": [
        {
          "indexed": true,
          "internalType": "bytes32",
          "name": "messageId",
          "type": "bytes32"
        }
      ],
      "name": "MessageHopped",
      "type": "event"
    },
    {
      "anonymous": false,
      "inputs": [
        {
          "indexed": true,
          "internalType": "bytes32",
          "name": "messageId",
          "type": "bytes32"
        }
      ],
      "name": "MessageSent",
      "type": "event"
    },
    {
      "inputs": [
        {
          "components": [
            {
              "internalType": "bytes32",
              "name": "messageId",
              "type": "bytes32"
            },
            {
              "internalType": "uint64",
              "name": "sourceChainSelector",
              "type": "uint64"
            },
            {
              "internalType": "bytes",
              "name": "sender",
              "type": "bytes"
            },
            {
              "internalType": "bytes",
              "name": "data",
              "type": "bytes"
            },
            {
              "components": [
                {
                  "internalType": "address",
                  "name": "token",
                  "type": "address"
                },
                {
                  "internalType": "uint256",
                  "name": "amount",
                  "type": "uint256"
                }
              ],
              "internalType": "struct Client.EVMTokenAmount[]",
              "name": "destTokenAmounts",
              "type": "tuple[]"
            }
          ],
          "internalType": "struct Client.Any2EVMMessage",
          "name": "message",
          "type": "tuple"
        }
      ],
      "name": "ccipReceive",
      "outputs": [],
      "stateMutability": "nonpayable",
      "type": "function"
    },
    {
      "inputs": [],
      "name": "getRouter",
      "outputs": [
        {
          "internalType": "address",
          "name": "",
          "type": "address"
        }
      ],
      "stateMutability": "view",
      "type": "function"
    },
    {
      "inputs": [
        {
          "internalType": "uint256",
          "name": "amount",
          "type": "uint256"
        },
        {
          "internalType": "uint256",
          "name": "gasLimit",
          "type": "uint256"
        },
        {
          "components": [
            {
              "internalType": "uint64",
              "name": "chainSelector",
              "type": "uint64"
            },
            {
              "internalType": "address",
              "name": "receiver",
              "type": "address"
            }
          ],
          "internalType": "struct VirtualHopV3.Hop[]",
          "name": "hops",
          "type": "tuple[]"
        }
      ],
      "name": "sendMessage",
      "outputs": [
        {
          "internalType": "bytes32",
          "name": "",
          "type": "bytes32"
        }
      ],
      "stateMutability": "nonpayable",
      "type": "function"
    },
    {
      "inputs": [
        {
          "internalType": "bytes4",
          "name": "interfaceId",
          "type": "bytes4"
        }
      ],
      "name": "supportsInterface",
      "outputs": [
        {
          "internalType": "bool",
          "name": "",
          "type": "bool"
        }
      ],
      "stateMutability": "pure",
      "type": "function"
    },
    {
      "stateMutability": "payable",
      "type": "receive"
    }
  ],
  "bytecode": {
    "object": "0x61010060405234801561001157600080fd5b50604051611165380380611165833981016040819052610030916100a5565b828282826001600160a01b038116610062576040516335fdcccd60e21b81526000600482015260240160405180910390fd5b6001600160a01b0390811660805292831660a05290821660c0521660e052506100e8915050565b80516001600160a01b03811681146100a057600080fd5b919050565b6000806000606084860312156100ba57600080fd5b6100c384610089565b92506100d160208501610089565b91506100df60408501610089565b90509250925092565b60805160a05160c05160e05161101461015160003960008181610586015261079c01526000818161040d015281816104d201526108460152600081816104a3015281816105570152818161060b01526106c101526000818160c0015261015a01526110146000f3fe6080604052600436106100435760003560e01c806301ffc9a71461004f57806385572ffb14610084578063b0f479a1146100a6578063d249a512146100ea57600080fd5b3661004a57005b600080fd5b34801561005b57600080fd5b5061006f61006a366004610907565b610118565b60405190151581526020015b60405180910390f35b34801561009057600080fd5b506100a461009f366004610938565b61014f565b005b3480156100b257600080fd5b506040516001600160a01b037f000000000000000000000000000000000000000000000000000000000000000016815260200161007b565b3480156100f657600080fd5b5061010a610105366004610a5f565b6101b2565b60405190815260200161007b565b60006001600160e01b031982166385572ffb60e01b148061014957506001600160e01b031982166301ffc9a760e01b145b92915050565b336001600160a01b037f0000000000000000000000000000000000000000000000000000000000000000161461019e576040516335fdcccd60e21b815233600482015260240160405180910390fd5b6101af6101aa82610c41565b610254565b50565b600080826000815181106101c8576101c8610ced565b602002602001015190506101db83610317565b925060008386866040516020016101f493929190610d03565b6040516020818303038152906040529050600061021c836000015184602001518989866103e1565b60405190915081907f54791b38f3859327992a1ca0590ad3c0f08feba98d1a4f56ab0dca74d203392a90600090a29695505050505050565b600080600083606001518060200190518101906102719190610d6d565b92509250925060008360008151811061028c5761028c610ced565b6020026020010151905061029f84610317565b935060008484846040516020016102b893929190610d03565b604051602081830303815290604052905060006102e0836000015184602001518787866103e1565b60405190915081907fbc0dfa58824685d6f99881dc543092afc8002524c494397b5517815689a58aab90600090a250505050505050565b6060600182516103279190610e5e565b6001600160401b0381111561033e5761033e610972565b60405190808252806020026020018201604052801561038357816020015b604080518082019091526000808252602082015281526020019060019003908161035c5790505b50905060005b81518110156103db578261039e826001610e71565b815181106103ae576103ae610ced565b60200260200101518282815181106103c8576103c8610ced565b6020908102919091010152600101610389565b50919050565b60008060006103f38888888888610691565b6040516370a0823160e01b815230600482015291935091507f00000000000000000000000000000000000000000000000000000000000000006001600160a01b0316906370a0823190602401602060405180830381865afa15801561045c573d6000803e3d6000fd5b505050506040513d601f19601f820116820180604052508101906104809190610e84565b81111561048c57600080fd5b60405163095ea7b360e01b81526001600160a01b037f000000000000000000000000000000000000000000000000000000000000000081166004830152602482018390527f0000000000000000000000000000000000000000000000000000000000000000169063095ea7b3906044016020604051808303816000875af115801561051b573d6000803e3d6000fd5b505050506040513d601f19601f8201168201806040525081019061053f9190610e9d565b5060405163095ea7b360e01b81526001600160a01b037f000000000000000000000000000000000000000000000000000000000000000081166004830152602482018890527f0000000000000000000000000000000000000000000000000000000000000000169063095ea7b3906044016020604051808303816000875af11580156105cf573d6000803e3d6000fd5b505050506040513d601f19601f820116820180604052508101906105f39190610e9d565b506040516396f4e9f960e01b81526001600160a01b037f000000000000000000000000000000000000000000000000000000000000000016906396f4e9f990610642908b908690600401610f05565b6020604051808303816000875af1158015610661573d6000803e3d6000fd5b505050506040513d601f19601f820116820180604052508101906106859190610e84565b98975050505050505050565b6106996108cf565b60006106a786848787610745565b6040516320487ded60e01b81529092506001600160a01b037f000000000000000000000000000000000000000000000000000000000000000016906320487ded906106f8908a908690600401610f05565b602060405180830381865afa158015610715573d6000803e3d6000fd5b505050506040513d601f19601f820116820180604052508101906107399190610e84565b90509550959350505050565b61074d6108cf565b604080516001808252818301909252600091816020015b6040805180820190915260008082526020820152815260200190600190039081610764579050509050600060405180604001604052807f00000000000000000000000000000000000000000000000000000000000000006001600160a01b0316815260200186815250905080826000815181106107e3576107e3610ced565b602090810291909101810191909152604080518082018252868152600092810192909252805160a081019091526001600160a01b03891660c08201528060e0810160405160208183030381529060405281526020018881526020018481526020017f00000000000000000000000000000000000000000000000000000000000000006001600160a01b031681526020016108c1836040805182516024820152602092830151151560448083019190915282518083039091018152606490910190915290810180516001600160e01b03166397a657c960e01b17905290565b905298975050505050505050565b6040518060a0016040528060608152602001606081526020016060815260200160006001600160a01b03168152602001606081525090565b60006020828403121561091957600080fd5b81356001600160e01b03198116811461093157600080fd5b9392505050565b60006020828403121561094a57600080fd5b81356001600160401b0381111561096057600080fd5b820160a0818503121561093157600080fd5b634e487b7160e01b600052604160045260246000fd5b604080519081016001600160401b03811182821017156109aa576109aa610972565b60405290565b60405160a081016001600160401b03811182821017156109aa576109aa610972565b604051601f8201601f191681016001600160401b03811182821017156109fa576109fa610972565b604052919050565b60006001600160401b03821115610a1b57610a1b610972565b5060051b60200190565b6001600160401b03811681146101af57600080fd5b8035610a4581610a25565b919050565b6001600160a01b03811681146101af57600080fd5b600080600060608486031215610a7457600080fd5b8335925060208085013592506040808601356001600160401b03811115610a9a57600080fd5b8601601f81018813610aab57600080fd5b8035610abe610ab982610a02565b6109d2565b81815260069190911b8201840190848101908a831115610add57600080fd5b928501925b82841015610b2f5784848c031215610afa5760008081fd5b610b02610988565b8435610b0d81610a25565b815284870135610b1c81610a4a565b8188015282529284019290850190610ae2565b8096505050505050509250925092565b600082601f830112610b5057600080fd5b81356001600160401b03811115610b6957610b69610972565b610b7c601f8201601f19166020016109d2565b818152846020838601011115610b9157600080fd5b816020850160208301376000918101602001919091529392505050565b600082601f830112610bbf57600080fd5b81356020610bcf610ab983610a02565b82815260069290921b84018101918181019086841115610bee57600080fd5b8286015b84811015610c365760408189031215610c0b5760008081fd5b610c13610988565b8135610c1e81610a4a565b81528185013585820152835291830191604001610bf2565b509695505050505050565b600060a08236031215610c5357600080fd5b610c5b6109b0565b82358152610c6b60208401610a3a565b602082015260408301356001600160401b0380821115610c8a57600080fd5b610c9636838701610b3f565b60408401526060850135915080821115610caf57600080fd5b610cbb36838701610b3f565b60608401526080850135915080821115610cd457600080fd5b50610ce136828601610bae565b60808301525092915050565b634e487b7160e01b600052603260045260246000fd5b606080825284519082018190526000906020906080840190828801845b82811015610d5957815180516001600160401b031685528501516001600160a01b03168585015260409093019290840190600101610d20565b505050908301949094525060400152919050565b600080600060608486031215610d8257600080fd5b83516001600160401b03811115610d9857600080fd5b8401601f81018613610da957600080fd5b80516020610db9610ab983610a02565b82815260069290921b83018101918181019089841115610dd857600080fd5b938201935b83851015610e2e576040858b031215610df65760008081fd5b610dfe610988565b8551610e0981610a25565b815285840151610e1881610a4a565b8185015282526040949094019390820190610ddd565b918801516040909801519199979850909695505050505050565b634e487b7160e01b600052601160045260246000fd5b8181038181111561014957610149610e48565b8082018082111561014957610149610e48565b600060208284031215610e9657600080fd5b5051919050565b600060208284031215610eaf57600080fd5b8151801515811461093157600080fd5b6000815180845260005b81811015610ee557602081850181015186830182015201610ec9565b506000602082860101526020601f19601f83011685010191505092915050565b600060406001600160401b038516835260208181850152845160a083860152610f3160e0860182610ebf565b905081860151603f1980878403016060880152610f4e8383610ebf565b88860151888203830160808a01528051808352908601945060009350908501905b80841015610fa157845180516001600160a01b0316835286015186830152938501936001939093019290860190610f6f565b5060608901516001600160a01b031660a08901526080890151888203830160c08a01529550610fd08187610ebf565b9a995050505050505050505056fea2646970667358221220faa500326badde52a68889c5cbf6bdd20e5e67b0f1d632973b9de4919edb75d264736f6c63430008130033",
    "linkReferences": {}
  },
  "methodIdentifiers": {
    "ccipReceive((bytes32,uint64,bytes,bytes,(address,uint256)[]))": "85572ffb",
    "getRouter()": "b0f479a1",
    "sendMessage(uint256,uint256,(uint64,address)[])": "d249a512",
    "supportsInterface(bytes4)": "01ffc9a7"
  },
  "id": 26
}