{
  "abi": [
    {
      "inputs": [
        {
          "internalType": "address",
          "name": "_router",
          "type": "address"
        },
        {
          "internalType": "address",
          "name": "_linkToken",
          "type": "address"
        },
        {
          "internalType": "address",
          "name": "_bnmToken",
          "type": "address"
        }
      ],
      "stateMutability": "nonpayable",
      "type": "constructor"
    },
    {
      "inputs": [
        {
          "internalType": "address",
          "name": "router",
          "type": "address"
        }
      ],
      "name": "InvalidRouter",
      "type": "error"
    },
    {
      "anonymous": false,
      "inputs": [
        {
          "indexed": false,
          "internalType": "bytes32",
          "name": "messageId",
          "type": "bytes32"
        }
      ],
      "name": "MessageHopped",
      "type": "event"
    },
    {
      "anonymous": false,
      "inputs": [
        {
          "indexed": false,
          "internalType": "bytes32",
          "name": "messageId",
          "type": "bytes32"
        }
      ],
      "name": "MessageSent",
      "type": "event"
    },
    {
      "inputs": [
        {
          "internalType": "uint64",
          "name": "chainSelector",
          "type": "uint64"
        },
        {
          "internalType": "address",
          "name": "receiver",
          "type": "address"
        },
        {
          "internalType": "uint256",
          "name": "amount",
          "type": "uint256"
        },
        {
          "internalType": "uint256",
          "name": "gasLimit",
          "type": "uint256"
        },
        {
          "internalType": "uint64",
          "name": "destinationChainSelector",
          "type": "uint64"
        },
        {
          "internalType": "address",
          "name": "destinationReceiver",
          "type": "address"
        }
      ],
      "name": "SendMessage",
      "outputs": [
        {
          "internalType": "bytes32",
          "name": "",
          "type": "bytes32"
        }
      ],
      "stateMutability": "nonpayable",
      "type": "function"
    },
    {
      "inputs": [
        {
          "components": [
            {
              "internalType": "bytes32",
              "name": "messageId",
              "type": "bytes32"
            },
            {
              "internalType": "uint64",
              "name": "sourceChainSelector",
              "type": "uint64"
            },
            {
              "internalType": "bytes",
              "name": "sender",
              "type": "bytes"
            },
            {
              "internalType": "bytes",
              "name": "data",
              "type": "bytes"
            },
            {
              "components": [
                {
                  "internalType": "address",
                  "name": "token",
                  "type": "address"
                },
                {
                  "internalType": "uint256",
                  "name": "amount",
                  "type": "uint256"
                }
              ],
              "internalType": "struct Client.EVMTokenAmount[]",
              "name": "destTokenAmounts",
              "type": "tuple[]"
            }
          ],
          "internalType": "struct Client.Any2EVMMessage",
          "name": "message",
          "type": "tuple"
        }
      ],
      "name": "ccipReceive",
      "outputs": [],
      "stateMutability": "nonpayable",
      "type": "function"
    },
    {
      "inputs": [],
      "name": "getRouter",
      "outputs": [
        {
          "internalType": "address",
          "name": "",
          "type": "address"
        }
      ],
      "stateMutability": "view",
      "type": "function"
    },
    {
      "inputs": [
        {
          "internalType": "bytes4",
          "name": "interfaceId",
          "type": "bytes4"
        }
      ],
      "name": "supportsInterface",
      "outputs": [
        {
          "internalType": "bool",
          "name": "",
          "type": "bool"
        }
      ],
      "stateMutability": "pure",
      "type": "function"
    },
    {
      "stateMutability": "payable",
      "type": "receive"
    }
  ],
  "bytecode": {
    "object": "0x61010060405234801561001157600080fd5b50604051610ee9380380610ee9833981016040819052610030916100a5565b828282826001600160a01b038116610062576040516335fdcccd60e21b81526000600482015260240160405180910390fd5b6001600160a01b0390811660805292831660a05290821660c0521660e052506100e8915050565b80516001600160a01b03811681146100a057600080fd5b919050565b6000806000606084860312156100ba57600080fd5b6100c384610089565b92506100d160208501610089565b91506100df60408501610089565b90509250925092565b60805160a05160c05160e051610d986101516000396000818161051c01526106b50152600081816103a301528181610468015261077f0152600081816102fe01528181610439015281816104ed01526105a401526000818160c0015261015a0152610d986000f3fe6080604052600436106100435760003560e01c806301ffc9a71461004f57806385572ffb14610084578063b0f479a1146100a6578063cca1f157146100ea57600080fd5b3661004a57005b600080fd5b34801561005b57600080fd5b5061006f61006a366004610809565b610118565b60405190151581526020015b60405180910390f35b34801561009057600080fd5b506100a461009f36600461083a565b61014f565b005b3480156100b257600080fd5b506040516001600160a01b037f000000000000000000000000000000000000000000000000000000000000000016815260200161007b565b3480156100f657600080fd5b5061010a6101053660046108b0565b6101b2565b60405190815260200161007b565b60006001600160e01b031982166385572ffb60e01b148061014957506001600160e01b031982166301ffc9a760e01b145b92915050565b336001600160a01b037f0000000000000000000000000000000000000000000000000000000000000000161461019e576040516335fdcccd60e21b815233600482015260240160405180910390fd5b6101af6101aa82610ad0565b610262565b50565b604080516060808201835267ffffffffffffffff85168083526001600160a01b0385811660208086019182529486018a815286519586019390935251168385015251828201528251808303909101815260809091019091526000908161021b89898989866102e9565b90507f54791b38f3859327992a1ca0590ad3c0f08feba98d1a4f56ab0dca74d203392a8160405161024e91815260200190565b60405180910390a198975050505050505050565b6000816060015180602001905181019061027c9190610b7d565b905060006102a98260400151836060015184608001516000604051806020016040528060008152506102e9565b90507fbc0dfa58824685d6f99881dc543092afc8002524c494397b5517815689a58aab816040516102dc91815260200190565b60405180910390a1505050565b6000806102f88684878761062b565b905060007f00000000000000000000000000000000000000000000000000000000000000006001600160a01b03166320487ded89846040518363ffffffff1660e01b815260040161034a929190610c24565b602060405180830381865afa158015610367573d6000803e3d6000fd5b505050506040513d601f19601f8201168201806040525081019061038b9190610cfe565b6040516370a0823160e01b81523060048201529091507f00000000000000000000000000000000000000000000000000000000000000006001600160a01b0316906370a0823190602401602060405180830381865afa1580156103f2573d6000803e3d6000fd5b505050506040513d601f19601f820116820180604052508101906104169190610cfe565b81111561042257600080fd5b60405163095ea7b360e01b81526001600160a01b037f000000000000000000000000000000000000000000000000000000000000000081166004830152602482018390527f0000000000000000000000000000000000000000000000000000000000000000169063095ea7b3906044016020604051808303816000875af11580156104b1573d6000803e3d6000fd5b505050506040513d601f19601f820116820180604052508101906104d59190610d17565b5060405163095ea7b360e01b81526001600160a01b037f000000000000000000000000000000000000000000000000000000000000000081166004830152602482018890527f0000000000000000000000000000000000000000000000000000000000000000169063095ea7b3906044016020604051808303816000875af1158015610565573d6000803e3d6000fd5b505050506040513d601f19601f820116820180604052508101906105899190610d17565b506040516396f4e9f960e01b81526000906001600160a01b037f000000000000000000000000000000000000000000000000000000000000000016906396f4e9f9906105db908c908790600401610c24565b6020604051808303816000875af11580156105fa573d6000803e3d6000fd5b505050506040513d601f19601f8201168201806040525081019061061e9190610cfe565b9998505050505050505050565b6106666040518060a0016040528060608152602001606081526020016060815260200160006001600160a01b03168152602001606081525090565b604080516001808252818301909252600091816020015b604080518082019091526000808252602082015281526020019060019003908161067d579050509050600060405180604001604052807f00000000000000000000000000000000000000000000000000000000000000006001600160a01b0316815260200186815250905080826000815181106106fc576106fc610d39565b6020908102919091018101919091526040805180820182528681526000928101839052815160a081019092526001600160a01b038a1660c083015291908060e081016040516020818303038152906040528152602001896040516020016107639190610d4f565b60405160208183030381529060405281526020018581526020017f00000000000000000000000000000000000000000000000000000000000000006001600160a01b031681526020016107fa846040805182516024820152602092830151151560448083019190915282518083039091018152606490910190915290810180516001600160e01b03166397a657c960e01b17905290565b90529998505050505050505050565b60006020828403121561081b57600080fd5b81356001600160e01b03198116811461083357600080fd5b9392505050565b60006020828403121561084c57600080fd5b813567ffffffffffffffff81111561086357600080fd5b820160a0818503121561083357600080fd5b67ffffffffffffffff811681146101af57600080fd5b803561089681610875565b919050565b6001600160a01b03811681146101af57600080fd5b60008060008060008060c087890312156108c957600080fd5b86356108d481610875565b955060208701356108e48161089b565b94506040870135935060608701359250608087013561090281610875565b915060a08701356109128161089b565b809150509295509295509295565b634e487b7160e01b600052604160045260246000fd5b6040805190810167ffffffffffffffff8111828210171561095957610959610920565b60405290565b60405160a0810167ffffffffffffffff8111828210171561095957610959610920565b604051601f8201601f1916810167ffffffffffffffff811182821017156109ab576109ab610920565b604052919050565b600082601f8301126109c457600080fd5b813567ffffffffffffffff8111156109de576109de610920565b6109f1601f8201601f1916602001610982565b818152846020838601011115610a0657600080fd5b816020850160208301376000918101602001919091529392505050565b600082601f830112610a3457600080fd5b8135602067ffffffffffffffff821115610a5057610a50610920565b610a5e818360051b01610982565b82815260069290921b84018101918181019086841115610a7d57600080fd5b8286015b84811015610ac55760408189031215610a9a5760008081fd5b610aa2610936565b8135610aad8161089b565b81528185013585820152835291830191604001610a81565b509695505050505050565b600060a08236031215610ae257600080fd5b610aea61095f565b82358152610afa6020840161088b565b6020820152604083013567ffffffffffffffff80821115610b1a57600080fd5b610b26368387016109b3565b60408401526060850135915080821115610b3f57600080fd5b610b4b368387016109b3565b60608401526080850135915080821115610b6457600080fd5b50610b7136828601610a23565b60808301525092915050565b600060a08284031215610b8f57600080fd5b610b9761095f565b82518152602083015160208201526040830151610bb381610875565b60408201526060830151610bc68161089b565b60608201526080928301519281019290925250919050565b6000815180845260005b81811015610c0457602081850181015186830182015201610be8565b506000602082860101526020601f19601f83011685010191505092915050565b6000604067ffffffffffffffff8516835260208181850152845160a083860152610c5160e0860182610bde565b905081860151603f1980878403016060880152610c6e8383610bde565b88860151888203830160808a01528051808352908601945060009350908501905b80841015610cc157845180516001600160a01b0316835286015186830152938501936001939093019290860190610c8f565b5060608901516001600160a01b031660a08901526080890151888203830160c08a01529550610cf08187610bde565b9a9950505050505050505050565b600060208284031215610d1057600080fd5b5051919050565b600060208284031215610d2957600080fd5b8151801515811461083357600080fd5b634e487b7160e01b600052603260045260246000fd5b6020815260006108336020830184610bde56fea2646970667358221220195fe1f3298e654e36c3548e8f67701ecc3a2d689ab1757270a5378a61dc237c64736f6c63430008130033",
    "linkReferences": {}
  },
  "methodIdentifiers": {
    "SendMessage(uint64,address,uint256,uint256,uint64,address)": "cca1f157",
    "ccipReceive((bytes32,uint64,bytes,bytes,(address,uint256)[]))": "85572ffb",
    "getRouter()": "b0f479a1",
    "supportsInterface(bytes4)": "01ffc9a7"
  },
  "id": 32
}