{
  "abi": [
    {
      "inputs": [
        {
          "internalType": "address",
          "name": "router",
          "type": "address"
        },
        {
          "internalType": "address",
          "name": "link",
          "type": "address"
        }
      ],
      "stateMutability": "nonpayable",
      "type": "constructor"
    },
    {
      "anonymous": false,
      "inputs": [
        {
          "indexed": false,
          "internalType": "bytes32",
          "name": "messageId",
          "type": "bytes32"
        }
      ],
      "name": "MessageSent",
      "type": "event"
    },
    {
      "inputs": [],
      "name": "collect",
      "outputs": [],
      "stateMutability": "nonpayable",
      "type": "function"
    },
    {
      "inputs": [],
      "name": "hop",
      "outputs": [],
      "stateMutability": "nonpayable",
      "type": "function"
    },
    {
      "inputs": [
        {
          "internalType": "uint64",
          "name": "destinationChainSelector",
          "type": "uint64"
        },
        {
          "internalType": "address",
          "name": "receiver",
          "type": "address"
        },
        {
          "internalType": "address",
          "name": "token",
          "type": "address"
        },
        {
          "internalType": "uint256",
          "name": "amount",
          "type": "uint256"
        },
        {
          "internalType": "address",
          "name": "feeToken",
          "type": "address"
        },
        {
          "internalType": "string",
          "name": "data",
          "type": "string"
        }
      ],
      "name": "send",
      "outputs": [
        {
          "internalType": "bytes32",
          "name": "",
          "type": "bytes32"
        }
      ],
      "stateMutability": "nonpayable",
      "type": "function"
    }
  ],
  "bytecode": {
    "object": "0x60a060405234801561001057600080fd5b5060405161083a38038061083a83398101604081905261002f91610070565b600080546001600160a01b0319166001600160a01b03938416179055166080526100a3565b80516001600160a01b038116811461006b57600080fd5b919050565b6000806040838503121561008357600080fd5b61008c83610054565b915061009a60208401610054565b90509250929050565b60805161077f6100bb6000396000505061077f6000f3fe608060405234801561001057600080fd5b50600436106100415760003560e01c80637132fffb14610046578063b0b8579b1461006b578063e52253811461006b575b600080fd5b6100596100543660046104b8565b61006d565b60405190815260200160405180910390f35b005b600061007d878787878787610088565b979650505050505050565b6000806100988784888888610336565b600080546040516320487ded60e01b815292935090916001600160a01b03909116906320487ded906100d0908c908690600401610604565b602060405180830381865afa1580156100ed573d6000803e3d6000fd5b505050506040513d601f19601f8201168201806040525081019061011191906106de565b6040516370a0823160e01b81523060048201529091506001600160a01b038616906370a0823190602401602060405180830381865afa158015610158573d6000803e3d6000fd5b505050506040513d601f19601f8201168201806040525081019061017c91906106de565b81111561018857600080fd5b60005460405163095ea7b360e01b81526001600160a01b039182166004820152602481018390529086169063095ea7b3906044016020604051808303816000875af11580156101db573d6000803e3d6000fd5b505050506040513d601f19601f820116820180604052508101906101ff91906106f7565b5060005460405163095ea7b360e01b81526001600160a01b039182166004820152602481018890529088169063095ea7b3906044016020604051808303816000875af1158015610253573d6000803e3d6000fd5b505050506040513d601f19601f8201168201806040525081019061027791906106f7565b50600080546040516396f4e9f960e01b81526001600160a01b03909116906396f4e9f9906102ab908d908790600401610604565b6020604051808303816000875af11580156102ca573d6000803e3d6000fd5b505050506040513d601f19601f820116820180604052508101906102ee91906106de565b90507f54791b38f3859327992a1ca0590ad3c0f08feba98d1a4f56ab0dca74d203392a8160405161032191815260200190565b60405180910390a19998505050505050505050565b6103716040518060a0016040528060608152602001606081526020016060815260200160006001600160a01b03168152602001606081525090565b604080516001808252818301909252600091816020015b604080518082019091526000808252602082015281526020019060019003908161038857905050905060006040518060400160405280876001600160a01b0316815260200186815250905080826000815181106103e7576103e7610720565b60209081029190910101526040805160a081019091526001600160a01b03891660c08201526000908060e081016040516020818303038152906040528152602001896040516020016104399190610736565b6040516020818303038152906040528152602001848152602001866001600160a01b0316815260200160405180602001604052806000815250815250905080935050505095945050505050565b80356001600160a01b038116811461049d57600080fd5b919050565b634e487b7160e01b600052604160045260246000fd5b60008060008060008060c087890312156104d157600080fd5b863567ffffffffffffffff80821682146104ea57600080fd5b8197506104f960208a01610486565b965061050760408a01610486565b95506060890135945061051c60808a01610486565b935060a089013591508082111561053257600080fd5b818901915089601f83011261054657600080fd5b813581811115610558576105586104a2565b604051601f8201601f19908116603f01168101908382118183101715610580576105806104a2565b816040528281528c602084870101111561059957600080fd5b8260208601602083013760006020848301015280955050505050509295509295509295565b6000815180845260005b818110156105e4576020818501810151868301820152016105c8565b506000602082860101526020601f19601f83011685010191505092915050565b6000604067ffffffffffffffff8516835260208181850152845160a08386015261063160e08601826105be565b905081860151603f198087840301606088015261064e83836105be565b88860151888203830160808a01528051808352908601945060009350908501905b808410156106a157845180516001600160a01b031683528601518683015293850193600193909301929086019061066f565b5060608901516001600160a01b031660a08901526080890151888203830160c08a015295506106d081876105be565b9a9950505050505050505050565b6000602082840312156106f057600080fd5b5051919050565b60006020828403121561070957600080fd5b8151801515811461071957600080fd5b9392505050565b634e487b7160e01b600052603260045260246000fd5b60208152600061071960208301846105be56fea26469706673582212206ebb3a0b5763df1203a41d4ccb02d5402adc1e828f9104d247b26fba2727aeb664736f6c63430008130033",
    "linkReferences": {}
  },
  "methodIdentifiers": {
    "collect()": "e5225381",
    "hop()": "b0b8579b",
    "send(uint64,address,address,uint256,address,string)": "7132fffb"
  },
  "id": 26
}