{
  "abi": [
    {
      "inputs": [
        {
          "internalType": "address",
          "name": "_router",
          "type": "address"
        },
        {
          "internalType": "address",
          "name": "_linkToken",
          "type": "address"
        },
        {
          "internalType": "address",
          "name": "_bnmToken",
          "type": "address"
        }
      ],
      "stateMutability": "nonpayable",
      "type": "constructor"
    },
    {
      "inputs": [
        {
          "internalType": "address",
          "name": "router",
          "type": "address"
        }
      ],
      "name": "InvalidRouter",
      "type": "error"
    },
    {
      "anonymous": false,
      "inputs": [
        {
          "indexed": false,
          "internalType": "bytes32",
          "name": "messageId",
          "type": "bytes32"
        }
      ],
      "name": "MessageHopped",
      "type": "event"
    },
    {
      "anonymous": false,
      "inputs": [
        {
          "indexed": false,
          "internalType": "bytes32",
          "name": "messageId",
          "type": "bytes32"
        }
      ],
      "name": "MessageSent",
      "type": "event"
    },
    {
      "inputs": [
        {
          "internalType": "uint64",
          "name": "chainSelector",
          "type": "uint64"
        },
        {
          "internalType": "address",
          "name": "receiver",
          "type": "address"
        },
        {
          "internalType": "uint256",
          "name": "amount",
          "type": "uint256"
        },
        {
          "internalType": "uint256",
          "name": "gasLimit",
          "type": "uint256"
        },
        {
          "internalType": "uint64",
          "name": "destinationChainSelector",
          "type": "uint64"
        },
        {
          "internalType": "address",
          "name": "destinationReceiver",
          "type": "address"
        }
      ],
      "name": "SendMessage",
      "outputs": [
        {
          "internalType": "bytes32",
          "name": "",
          "type": "bytes32"
        }
      ],
      "stateMutability": "nonpayable",
      "type": "function"
    },
    {
      "inputs": [
        {
          "components": [
            {
              "internalType": "bytes32",
              "name": "messageId",
              "type": "bytes32"
            },
            {
              "internalType": "uint64",
              "name": "sourceChainSelector",
              "type": "uint64"
            },
            {
              "internalType": "bytes",
              "name": "sender",
              "type": "bytes"
            },
            {
              "internalType": "bytes",
              "name": "data",
              "type": "bytes"
            },
            {
              "components": [
                {
                  "internalType": "address",
                  "name": "token",
                  "type": "address"
                },
                {
                  "internalType": "uint256",
                  "name": "amount",
                  "type": "uint256"
                }
              ],
              "internalType": "struct Client.EVMTokenAmount[]",
              "name": "destTokenAmounts",
              "type": "tuple[]"
            }
          ],
          "internalType": "struct Client.Any2EVMMessage",
          "name": "message",
          "type": "tuple"
        }
      ],
      "name": "ccipReceive",
      "outputs": [],
      "stateMutability": "nonpayable",
      "type": "function"
    },
    {
      "inputs": [],
      "name": "getRouter",
      "outputs": [
        {
          "internalType": "address",
          "name": "",
          "type": "address"
        }
      ],
      "stateMutability": "view",
      "type": "function"
    },
    {
      "inputs": [
        {
          "internalType": "bytes4",
          "name": "interfaceId",
          "type": "bytes4"
        }
      ],
      "name": "supportsInterface",
      "outputs": [
        {
          "internalType": "bool",
          "name": "",
          "type": "bool"
        }
      ],
      "stateMutability": "pure",
      "type": "function"
    },
    {
      "stateMutability": "payable",
      "type": "receive"
    }
  ],
  "bytecode": {
    "object": "0x61010060405234801561001157600080fd5b50604051610ed3380380610ed3833981016040819052610030916100a5565b828282826001600160a01b038116610062576040516335fdcccd60e21b81526000600482015260240160405180910390fd5b6001600160a01b0390811660805292831660a05290821660c0521660e052506100e8915050565b80516001600160a01b03811681146100a057600080fd5b919050565b6000806000606084860312156100ba57600080fd5b6100c384610089565b92506100d160208501610089565b91506100df60408501610089565b90509250925092565b60805160a05160c05160e051610d826101516000396000818161052e01526106c70152600081816103b50152818161047a01526107720152600081816103100152818161044b015281816104ff01526105b601526000818160c0015261015a0152610d826000f3fe6080604052600436106100435760003560e01c806301ffc9a71461004f57806385572ffb14610084578063b0f479a1146100a6578063cca1f157146100ea57600080fd5b3661004a57005b600080fd5b34801561005b57600080fd5b5061006f61006a3660046107fc565b610118565b60405190151581526020015b60405180910390f35b34801561009057600080fd5b506100a461009f36600461082d565b61014f565b005b3480156100b257600080fd5b506040516001600160a01b037f000000000000000000000000000000000000000000000000000000000000000016815260200161007b565b3480156100f657600080fd5b5061010a6101053660046108a3565b6101b2565b60405190815260200161007b565b60006001600160e01b031982166385572ffb60e01b148061014957506001600160e01b031982166301ffc9a760e01b145b92915050565b336001600160a01b037f0000000000000000000000000000000000000000000000000000000000000000161461019e576040516335fdcccd60e21b815233600482015260240160405180910390fd5b6101af6101aa82610ac3565b610262565b50565b604080516060808201835267ffffffffffffffff85168083526001600160a01b0385811660208086019182529486018a815286519586019390935251168385015251828201528251808303909101815260809091019091526000908161021b89898989866102fb565b90507f54791b38f3859327992a1ca0590ad3c0f08feba98d1a4f56ab0dca74d203392a8160405161024e91815260200190565b60405180910390a198975050505050505050565b6000816060015180602001905181019061027c9190610b70565b6040805160006020820181905292935001604051602081830303815290604052905060006102ba8360000151846020015185604001516000866102fb565b90507fbc0dfa58824685d6f99881dc543092afc8002524c494397b5517815689a58aab816040516102ed91815260200190565b60405180910390a150505050565b60008061030a8684878761063d565b905060007f00000000000000000000000000000000000000000000000000000000000000006001600160a01b03166320487ded89846040518363ffffffff1660e01b815260040161035c929190610c21565b602060405180830381865afa158015610379573d6000803e3d6000fd5b505050506040513d601f19601f8201168201806040525081019061039d9190610cfb565b6040516370a0823160e01b81523060048201529091507f00000000000000000000000000000000000000000000000000000000000000006001600160a01b0316906370a0823190602401602060405180830381865afa158015610404573d6000803e3d6000fd5b505050506040513d601f19601f820116820180604052508101906104289190610cfb565b81111561043457600080fd5b60405163095ea7b360e01b81526001600160a01b037f000000000000000000000000000000000000000000000000000000000000000081166004830152602482018390527f0000000000000000000000000000000000000000000000000000000000000000169063095ea7b3906044016020604051808303816000875af11580156104c3573d6000803e3d6000fd5b505050506040513d601f19601f820116820180604052508101906104e79190610d14565b5060405163095ea7b360e01b81526001600160a01b037f000000000000000000000000000000000000000000000000000000000000000081166004830152602482018890527f0000000000000000000000000000000000000000000000000000000000000000169063095ea7b3906044016020604051808303816000875af1158015610577573d6000803e3d6000fd5b505050506040513d601f19601f8201168201806040525081019061059b9190610d14565b506040516396f4e9f960e01b81526000906001600160a01b037f000000000000000000000000000000000000000000000000000000000000000016906396f4e9f9906105ed908c908790600401610c21565b6020604051808303816000875af115801561060c573d6000803e3d6000fd5b505050506040513d601f19601f820116820180604052508101906106309190610cfb565b9998505050505050505050565b6106786040518060a0016040528060608152602001606081526020016060815260200160006001600160a01b03168152602001606081525090565b604080516001808252818301909252600091816020015b604080518082019091526000808252602082015281526020019060019003908161068f579050509050600060405180604001604052807f00000000000000000000000000000000000000000000000000000000000000006001600160a01b03168152602001868152509050808260008151811061070e5761070e610d36565b6020908102919091018101919091526040805180820182528681526000928101839052815160a081019092526001600160a01b038a1660c083015291908060e0810160405160208183030381529060405281526020018981526020018581526020017f00000000000000000000000000000000000000000000000000000000000000006001600160a01b031681526020016107ed846040805182516024820152602092830151151560448083019190915282518083039091018152606490910190915290810180516001600160e01b03166397a657c960e01b17905290565b90529998505050505050505050565b60006020828403121561080e57600080fd5b81356001600160e01b03198116811461082657600080fd5b9392505050565b60006020828403121561083f57600080fd5b813567ffffffffffffffff81111561085657600080fd5b820160a0818503121561082657600080fd5b67ffffffffffffffff811681146101af57600080fd5b803561088981610868565b919050565b6001600160a01b03811681146101af57600080fd5b60008060008060008060c087890312156108bc57600080fd5b86356108c781610868565b955060208701356108d78161088e565b9450604087013593506060870135925060808701356108f581610868565b915060a08701356109058161088e565b809150509295509295509295565b634e487b7160e01b600052604160045260246000fd5b6040805190810167ffffffffffffffff8111828210171561094c5761094c610913565b60405290565b60405160a0810167ffffffffffffffff8111828210171561094c5761094c610913565b604051601f8201601f1916810167ffffffffffffffff8111828210171561099e5761099e610913565b604052919050565b600082601f8301126109b757600080fd5b813567ffffffffffffffff8111156109d1576109d1610913565b6109e4601f8201601f1916602001610975565b8181528460208386010111156109f957600080fd5b816020850160208301376000918101602001919091529392505050565b600082601f830112610a2757600080fd5b8135602067ffffffffffffffff821115610a4357610a43610913565b610a51818360051b01610975565b82815260069290921b84018101918181019086841115610a7057600080fd5b8286015b84811015610ab85760408189031215610a8d5760008081fd5b610a95610929565b8135610aa08161088e565b81528185013585820152835291830191604001610a74565b509695505050505050565b600060a08236031215610ad557600080fd5b610add610952565b82358152610aed6020840161087e565b6020820152604083013567ffffffffffffffff80821115610b0d57600080fd5b610b19368387016109a6565b60408401526060850135915080821115610b3257600080fd5b610b3e368387016109a6565b60608401526080850135915080821115610b5757600080fd5b50610b6436828601610a16565b60808301525092915050565b600060608284031215610b8257600080fd5b6040516060810181811067ffffffffffffffff82111715610ba557610ba5610913565b6040528251610bb381610868565b81526020830151610bc38161088e565b60208201526040928301519281019290925250919050565b6000815180845260005b81811015610c0157602081850181015186830182015201610be5565b506000602082860101526020601f19601f83011685010191505092915050565b6000604067ffffffffffffffff8516835260208181850152845160a083860152610c4e60e0860182610bdb565b905081860151603f1980878403016060880152610c6b8383610bdb565b88860151888203830160808a01528051808352908601945060009350908501905b80841015610cbe57845180516001600160a01b0316835286015186830152938501936001939093019290860190610c8c565b5060608901516001600160a01b031660a08901526080890151888203830160c08a01529550610ced8187610bdb565b9a9950505050505050505050565b600060208284031215610d0d57600080fd5b5051919050565b600060208284031215610d2657600080fd5b8151801515811461082657600080fd5b634e487b7160e01b600052603260045260246000fdfea2646970667358221220cd9c231fb33c150a0b1358cdc2a2c36d76fc69be81a8418bd1c8dbed4c509b8b64736f6c63430008130033",
    "linkReferences": {}
  },
  "methodIdentifiers": {
    "SendMessage(uint64,address,uint256,uint256,uint64,address)": "cca1f157",
    "ccipReceive((bytes32,uint64,bytes,bytes,(address,uint256)[]))": "85572ffb",
    "getRouter()": "b0f479a1",
    "supportsInterface(bytes4)": "01ffc9a7"
  },
  "id": 23
}