{
  "abi": [
    {
      "inputs": [
        {
          "internalType": "address",
          "name": "_router",
          "type": "address"
        },
        {
          "internalType": "address",
          "name": "_linkToken",
          "type": "address"
        },
        {
          "internalType": "address",
          "name": "_bnmToken",
          "type": "address"
        }
      ],
      "stateMutability": "nonpayable",
      "type": "constructor"
    },
    {
      "inputs": [
        {
          "internalType": "address",
          "name": "router",
          "type": "address"
        }
      ],
      "name": "InvalidRouter",
      "type": "error"
    },
    {
      "inputs": [],
      "name": "Sender__ApproveRouterBnmSpend",
      "type": "error"
    },
    {
      "inputs": [],
      "name": "Sender__ApproveRouterLinkSpend",
      "type": "error"
    },
    {
      "inputs": [],
      "name": "Sender__InsufficientFundsToCoverFee",
      "type": "error"
    },
    {
      "inputs": [],
      "name": "VirtualHop__NextHopEmpty",
      "type": "error"
    },
    {
      "anonymous": false,
      "inputs": [
        {
          "indexed": true,
          "internalType": "bytes32",
          "name": "messageId",
          "type": "bytes32"
        }
      ],
      "name": "MessageHopped",
      "type": "event"
    },
    {
      "anonymous": false,
      "inputs": [
        {
          "indexed": true,
          "internalType": "bytes32",
          "name": "messageId",
          "type": "bytes32"
        }
      ],
      "name": "MessageSent",
      "type": "event"
    },
    {
      "inputs": [
        {
          "components": [
            {
              "internalType": "bytes32",
              "name": "messageId",
              "type": "bytes32"
            },
            {
              "internalType": "uint64",
              "name": "sourceChainSelector",
              "type": "uint64"
            },
            {
              "internalType": "bytes",
              "name": "sender",
              "type": "bytes"
            },
            {
              "internalType": "bytes",
              "name": "data",
              "type": "bytes"
            },
            {
              "components": [
                {
                  "internalType": "address",
                  "name": "token",
                  "type": "address"
                },
                {
                  "internalType": "uint256",
                  "name": "amount",
                  "type": "uint256"
                }
              ],
              "internalType": "struct Client.EVMTokenAmount[]",
              "name": "destTokenAmounts",
              "type": "tuple[]"
            }
          ],
          "internalType": "struct Client.Any2EVMMessage",
          "name": "message",
          "type": "tuple"
        }
      ],
      "name": "ccipReceive",
      "outputs": [],
      "stateMutability": "nonpayable",
      "type": "function"
    },
    {
      "inputs": [],
      "name": "getRouter",
      "outputs": [
        {
          "internalType": "address",
          "name": "",
          "type": "address"
        }
      ],
      "stateMutability": "view",
      "type": "function"
    },
    {
      "inputs": [
        {
          "internalType": "uint256",
          "name": "amount",
          "type": "uint256"
        },
        {
          "internalType": "uint256",
          "name": "gasLimit",
          "type": "uint256"
        },
        {
          "components": [
            {
              "internalType": "address",
              "name": "receiver",
              "type": "address"
            },
            {
              "internalType": "uint64",
              "name": "chainSelector",
              "type": "uint64"
            }
          ],
          "internalType": "struct VirtualHop.Hop[]",
          "name": "hops",
          "type": "tuple[]"
        }
      ],
      "name": "sendMessage",
      "outputs": [
        {
          "internalType": "bytes32",
          "name": "",
          "type": "bytes32"
        }
      ],
      "stateMutability": "nonpayable",
      "type": "function"
    },
    {
      "inputs": [
        {
          "internalType": "bytes4",
          "name": "interfaceId",
          "type": "bytes4"
        }
      ],
      "name": "supportsInterface",
      "outputs": [
        {
          "internalType": "bool",
          "name": "",
          "type": "bool"
        }
      ],
      "stateMutability": "pure",
      "type": "function"
    },
    {
      "stateMutability": "payable",
      "type": "receive"
    }
  ],
  "bytecode": {
    "object": "0x61010060405234801561001157600080fd5b506040516111c83803806111c8833981016040819052610030916100a5565b828282826001600160a01b038116610062576040516335fdcccd60e21b81526000600482015260240160405180910390fd5b6001600160a01b0390811660805292831660a05290821660c0521660e052506100e8915050565b80516001600160a01b03811681146100a057600080fd5b919050565b6000806000606084860312156100ba57600080fd5b6100c384610089565b92506100d160208501610089565b91506100df60408501610089565b90509250925092565b60805160a05160c05160e051611077610151600039600081816105e5015261081701526000818161043c0152818161051501526108c10152600081816104e6015281816105b601528181610686015261073c01526000818160ee01526101f101526110776000f3fe6080604052600436106100435760003560e01c806301ffc9a71461004f57806352523d821461008457806385572ffb146100b2578063b0f479a1146100d457600080fd5b3661004a57005b600080fd5b34801561005b57600080fd5b5061006f61006a366004610982565b610118565b60405190151581526020015b60405180910390f35b34801561009057600080fd5b506100a461009f3660046109b3565b61014f565b60405190815260200161007b565b3480156100be57600080fd5b506100d26100cd366004610a35565b6101e6565b005b3480156100e057600080fd5b506040516001600160a01b037f000000000000000000000000000000000000000000000000000000000000000016815260200161007b565b60006001600160e01b031982166385572ffb60e01b148061014957506001600160e01b031982166301ffc9a760e01b145b92915050565b6000806101af86868686808060200260200160405190810160405280939291908181526020016000905b828210156101a55761019660408302860136819003810190610b39565b81526020019060010190610179565b5050505050610249565b60405190915081907f54791b38f3859327992a1ca0590ad3c0f08feba98d1a4f56ab0dca74d203392a90600090a295945050505050565b336001600160a01b037f00000000000000000000000000000000000000000000000000000000000000001614610235576040516335fdcccd60e21b815233600482015260240160405180910390fd5b61024661024182610ca4565b6102e1565b50565b60008151600003610270576040516001620e427760e01b0319815260040160405180910390fd5b60008260008151811061028557610285610d50565b6020026020010151905061029883610346565b925060008386866040516020016102b193929190610d66565b60405160208183030381529060405290506102d782602001518360000151888885610410565b9695505050505050565b600080600083606001518060200190518101906102fe9190610dd0565b9250925092506000610311838386610249565b60405190915081907fbc0dfa58824685d6f99881dc543092afc8002524c494397b5517815689a58aab90600090a25050505050565b6060600182516103569190610ec1565b6001600160401b0381111561036d5761036d610a6f565b6040519080825280602002602001820160405280156103b257816020015b604080518082019091526000808252602082015281526020019060019003908161038b5790505b50905060005b815181101561040a57826103cd826001610ed4565b815181106103dd576103dd610d50565b60200260200101518282815181106103f7576103f7610d50565b60209081029190910101526001016103b8565b50919050565b6000806000610422888888888861070c565b6040516370a0823160e01b815230600482015291935091507f00000000000000000000000000000000000000000000000000000000000000006001600160a01b0316906370a0823190602401602060405180830381865afa15801561048b573d6000803e3d6000fd5b505050506040513d601f19601f820116820180604052508101906104af9190610ee7565b8111156104cf57604051630fc306dd60e41b815260040160405180910390fd5b60405163095ea7b360e01b81526001600160a01b037f000000000000000000000000000000000000000000000000000000000000000081166004830152602482018390527f0000000000000000000000000000000000000000000000000000000000000000169063095ea7b3906044016020604051808303816000875af115801561055e573d6000803e3d6000fd5b505050506040513d601f19601f820116820180604052508101906105829190610f00565b61059f576040516301c860ad60e21b815260040160405180910390fd5b60405163095ea7b360e01b81526001600160a01b037f000000000000000000000000000000000000000000000000000000000000000081166004830152602482018890527f0000000000000000000000000000000000000000000000000000000000000000169063095ea7b3906044016020604051808303816000875af115801561062e573d6000803e3d6000fd5b505050506040513d601f19601f820116820180604052508101906106529190610f00565b61066f5760405163152e45f960e31b815260040160405180910390fd5b6040516396f4e9f960e01b81526001600160a01b037f000000000000000000000000000000000000000000000000000000000000000016906396f4e9f9906106bd908b908690600401610f68565b6020604051808303816000875af11580156106dc573d6000803e3d6000fd5b505050506040513d601f19601f820116820180604052508101906107009190610ee7565b98975050505050505050565b61071461094a565b6000610722868487876107c0565b6040516320487ded60e01b81529092506001600160a01b037f000000000000000000000000000000000000000000000000000000000000000016906320487ded90610773908a908690600401610f68565b602060405180830381865afa158015610790573d6000803e3d6000fd5b505050506040513d601f19601f820116820180604052508101906107b49190610ee7565b90509550959350505050565b6107c861094a565b604080516001808252818301909252600091816020015b60408051808201909152600080825260208201528152602001906001900390816107df579050509050600060405180604001604052807f00000000000000000000000000000000000000000000000000000000000000006001600160a01b03168152602001868152509050808260008151811061085e5761085e610d50565b602090810291909101810191909152604080518082018252868152600092810192909252805160a081019091526001600160a01b03891660c08201528060e0810160405160208183030381529060405281526020018881526020018481526020017f00000000000000000000000000000000000000000000000000000000000000006001600160a01b0316815260200161093c836040805182516024820152602092830151151560448083019190915282518083039091018152606490910190915290810180516001600160e01b03166397a657c960e01b17905290565b905298975050505050505050565b6040518060a0016040528060608152602001606081526020016060815260200160006001600160a01b03168152602001606081525090565b60006020828403121561099457600080fd5b81356001600160e01b0319811681146109ac57600080fd5b9392505050565b600080600080606085870312156109c957600080fd5b843593506020850135925060408501356001600160401b03808211156109ee57600080fd5b818701915087601f830112610a0257600080fd5b813581811115610a1157600080fd5b8860208260061b8501011115610a2657600080fd5b95989497505060200194505050565b600060208284031215610a4757600080fd5b81356001600160401b03811115610a5d57600080fd5b820160a081850312156109ac57600080fd5b634e487b7160e01b600052604160045260246000fd5b604080519081016001600160401b0381118282101715610aa757610aa7610a6f565b60405290565b60405160a081016001600160401b0381118282101715610aa757610aa7610a6f565b604051601f8201601f191681016001600160401b0381118282101715610af757610af7610a6f565b604052919050565b6001600160a01b038116811461024657600080fd5b6001600160401b038116811461024657600080fd5b8035610b3481610b14565b919050565b600060408284031215610b4b57600080fd5b610b53610a85565b8235610b5e81610aff565b81526020830135610b6e81610b14565b60208201529392505050565b600082601f830112610b8b57600080fd5b81356001600160401b03811115610ba457610ba4610a6f565b610bb7601f8201601f1916602001610acf565b818152846020838601011115610bcc57600080fd5b816020850160208301376000918101602001919091529392505050565b60006001600160401b03821115610c0257610c02610a6f565b5060051b60200190565b600082601f830112610c1d57600080fd5b81356020610c32610c2d83610be9565b610acf565b82815260069290921b84018101918181019086841115610c5157600080fd5b8286015b84811015610c995760408189031215610c6e5760008081fd5b610c76610a85565b8135610c8181610aff565b81528185013585820152835291830191604001610c55565b509695505050505050565b600060a08236031215610cb657600080fd5b610cbe610aad565b82358152610cce60208401610b29565b602082015260408301356001600160401b0380821115610ced57600080fd5b610cf936838701610b7a565b60408401526060850135915080821115610d1257600080fd5b610d1e36838701610b7a565b60608401526080850135915080821115610d3757600080fd5b50610d4436828601610c0c565b60808301525092915050565b634e487b7160e01b600052603260045260246000fd5b606080825284519082018190526000906020906080840190828801845b82811015610dbc57815180516001600160a01b031685528501516001600160401b03168585015260409093019290840190600101610d83565b505050908301949094525060400152919050565b600080600060608486031215610de557600080fd5b83516001600160401b03811115610dfb57600080fd5b8401601f81018613610e0c57600080fd5b80516020610e1c610c2d83610be9565b82815260069290921b83018101918181019089841115610e3b57600080fd5b938201935b83851015610e91576040858b031215610e595760008081fd5b610e61610a85565b8551610e6c81610aff565b815285840151610e7b81610b14565b8185015282526040949094019390820190610e40565b918801516040909801519199979850909695505050505050565b634e487b7160e01b600052601160045260246000fd5b8181038181111561014957610149610eab565b8082018082111561014957610149610eab565b600060208284031215610ef957600080fd5b5051919050565b600060208284031215610f1257600080fd5b815180151581146109ac57600080fd5b6000815180845260005b81811015610f4857602081850181015186830182015201610f2c565b506000602082860101526020601f19601f83011685010191505092915050565b600060406001600160401b038516835260208181850152845160a083860152610f9460e0860182610f22565b905081860151603f1980878403016060880152610fb18383610f22565b88860151888203830160808a01528051808352908601945060009350908501905b8084101561100457845180516001600160a01b0316835286015186830152938501936001939093019290860190610fd2565b5060608901516001600160a01b031660a08901526080890151888203830160c08a015295506110338187610f22565b9a995050505050505050505056fea26469706673582212209d6e87a667656f774602b83463b9d3bfd46bd2da601cfcd8a6f51144db5acef364736f6c63430008130033",
    "linkReferences": {}
  },
  "methodIdentifiers": {
    "ccipReceive((bytes32,uint64,bytes,bytes,(address,uint256)[]))": "85572ffb",
    "getRouter()": "b0f479a1",
    "sendMessage(uint256,uint256,(address,uint64)[])": "52523d82",
    "supportsInterface(bytes4)": "01ffc9a7"
  },
  "id": 7
}