{
  "abi": [
    {
      "inputs": [
        {
          "internalType": "address",
          "name": "_router",
          "type": "address"
        },
        {
          "internalType": "address",
          "name": "_link",
          "type": "address"
        }
      ],
      "stateMutability": "nonpayable",
      "type": "constructor"
    },
    {
      "inputs": [
        {
          "internalType": "uint64",
          "name": "chainSelector",
          "type": "uint64"
        }
      ],
      "name": "getFee",
      "outputs": [
        {
          "internalType": "uint256",
          "name": "fee",
          "type": "uint256"
        }
      ],
      "stateMutability": "view",
      "type": "function"
    }
  ],
  "bytecode": {
    "object": "0x60a060405234801561001057600080fd5b5060405161050e38038061050e83398101604081905261002f91610070565b600080546001600160a01b0319166001600160a01b03938416179055166080526100a3565b80516001600160a01b038116811461006b57600080fd5b919050565b6000806040838503121561008357600080fd5b61008c83610054565b915061009a60208401610054565b90509250929050565b6080516104516100bd600039600060a001526104516000f3fe608060405234801561001057600080fd5b506004361061002b5760003560e01c80631982b1d014610030575b600080fd5b61004361003e36600461028f565b610055565b60405190815260200160405180910390f35b6000806100c473b592b6313f005ade818fcde0f64bc42ab23ed7006040518060200160405280600081525073fd57b4ddbf88a4e07ff4e34c487b99af2fe82a05670de0b6b3a76400007f000000000000000000000000000000000000000000000000000000000000000061013f565b6000546040516320487ded60e01b81529192506001600160a01b0316906320487ded906100f790869085906004016102ff565b602060405180830381865afa158015610114573d6000803e3d6000fd5b505050506040513d601f19601f8201168201806040525081019061013891906103d9565b9392505050565b61017a6040518060a0016040528060608152602001606081526020016060815260200160006001600160a01b03168152602001606081525090565b604080516001808252818301909252600091816020015b604080518082019091526000808252602082015281526020019060019003908161019157905050905060006040518060400160405280876001600160a01b0316815260200186815250905080826000815181106101f0576101f06103f2565b60209081029190910101526040805160a081019091526001600160a01b03891660c08201526000908060e081016040516020818303038152906040528152602001896040516020016102429190610408565b6040516020818303038152906040528152602001848152602001866001600160a01b0316815260200160405180602001604052806000815250815250905080935050505095945050505050565b6000602082840312156102a157600080fd5b813567ffffffffffffffff8116811461013857600080fd5b6000815180845260005b818110156102df576020818501810151868301820152016102c3565b506000602082860101526020601f19601f83011685010191505092915050565b6000604067ffffffffffffffff8516835260208181850152845160a08386015261032c60e08601826102b9565b905081860151603f198087840301606088015261034983836102b9565b88860151888203830160808a01528051808352908601945060009350908501905b8084101561039c57845180516001600160a01b031683528601518683015293850193600193909301929086019061036a565b5060608901516001600160a01b031660a08901526080890151888203830160c08a015295506103cb81876102b9565b9a9950505050505050505050565b6000602082840312156103eb57600080fd5b5051919050565b634e487b7160e01b600052603260045260246000fd5b60208152600061013860208301846102b956fea2646970667358221220efdd8e1bb27b3d4871be07f419d2723dd9273515583ac1572df7cd8eba9d1e8b64736f6c63430008130033",
    "linkReferences": {}
  },
  "methodIdentifiers": {
    "getFee(uint64)": "1982b1d0"
  },
  "id": 2
}