{
  "abi": [
    {
      "inputs": [
        {
          "internalType": "address",
          "name": "_router",
          "type": "address"
        },
        {
          "internalType": "address",
          "name": "_link",
          "type": "address"
        },
        {
          "internalType": "address",
          "name": "_transferToken",
          "type": "address"
        }
      ],
      "stateMutability": "nonpayable",
      "type": "constructor"
    },
    {
      "inputs": [
        {
          "internalType": "uint64",
          "name": "chainSelector",
          "type": "uint64"
        },
        {
          "internalType": "uint256",
          "name": "amount",
          "type": "uint256"
        },
        {
          "internalType": "address",
          "name": "destination",
          "type": "address"
        }
      ],
      "name": "getFee",
      "outputs": [
        {
          "internalType": "uint256",
          "name": "fee",
          "type": "uint256"
        }
      ],
      "stateMutability": "view",
      "type": "function"
    }
  ],
  "bytecode": {
    "object": "0x60c060405234801561001057600080fd5b5060405161055738038061055783398101604081905261002f91610076565b600080546001600160a01b0319166001600160a01b039485161790559082166080521660a0526100b9565b80516001600160a01b038116811461007157600080fd5b919050565b60008060006060848603121561008b57600080fd5b6100948461005a565b92506100a26020850161005a565b91506100b06040850161005a565b90509250925092565b60805160a05161047b6100dc6000396000606e015260006090015261047b6000f3fe608060405234801561001057600080fd5b506004361061002b5760003560e01c80636740c4b314610030575b600080fd5b61004361003e366004610281565b610055565b60405190815260200160405180910390f35b6000806100b483604051806020016040528060008152507f0000000000000000000000000000000000000000000000000000000000000000877f0000000000000000000000000000000000000000000000000000000000000000610131565b6000546040516320487ded60e01b81529192506001600160a01b0316906320487ded906100e79088908590600401610322565b602060405180830381865afa158015610104573d6000803e3d6000fd5b505050506040513d601f19601f8201168201806040525081019061012891906103fc565b95945050505050565b61016c6040518060a0016040528060608152602001606081526020016060815260200160006001600160a01b03168152602001606081525090565b604080516001808252818301909252600091816020015b604080518082019091526000808252602082015281526020019060019003908161018357905050905060006040518060400160405280876001600160a01b0316815260200186815250905080826000815181106101e2576101e2610415565b60209081029190910101526040805160a081019091526001600160a01b03891660c08201526000908060e08101604051602081830303815290604052815260200189604051602001610234919061042b565b6040516020818303038152906040528152602001848152602001866001600160a01b0316815260200160405180602001604052806000815250815250905080935050505095945050505050565b60008060006060848603121561029657600080fd5b833567ffffffffffffffff811681146102ae57600080fd5b92506020840135915060408401356001600160a01b03811681146102d157600080fd5b809150509250925092565b6000815180845260005b81811015610302576020818501810151868301820152016102e6565b506000602082860101526020601f19601f83011685010191505092915050565b6000604067ffffffffffffffff8516835260208181850152845160a08386015261034f60e08601826102dc565b905081860151603f198087840301606088015261036c83836102dc565b88860151888203830160808a01528051808352908601945060009350908501905b808410156103bf57845180516001600160a01b031683528601518683015293850193600193909301929086019061038d565b5060608901516001600160a01b031660a08901526080890151888203830160c08a015295506103ee81876102dc565b9a9950505050505050505050565b60006020828403121561040e57600080fd5b5051919050565b634e487b7160e01b600052603260045260246000fd5b60208152600061043e60208301846102dc565b939250505056fea26469706673582212203b044b54c629b10383a82ee585d7dae56006a52a1377612e59c78c15aaf3621564736f6c63430008130033",
    "linkReferences": {}
  },
  "methodIdentifiers": {
    "getFee(uint64,uint256,address)": "6740c4b3"
  },
  "id": 24
}