{
  "abi": [
    {
      "inputs": [
        {
          "internalType": "address",
          "name": "_router",
          "type": "address"
        },
        {
          "internalType": "address",
          "name": "_link",
          "type": "address"
        },
        {
          "internalType": "uint64",
          "name": "_destination",
          "type": "uint64"
        }
      ],
      "stateMutability": "nonpayable",
      "type": "constructor"
    },
    {
      "anonymous": false,
      "inputs": [
        {
          "indexed": false,
          "internalType": "bytes32",
          "name": "messageId",
          "type": "bytes32"
        }
      ],
      "name": "MessageSent",
      "type": "event"
    },
    {
      "inputs": [],
      "name": "sendMessage",
      "outputs": [
        {
          "internalType": "bytes32",
          "name": "",
          "type": "bytes32"
        }
      ],
      "stateMutability": "nonpayable",
      "type": "function"
    }
  ],
  "bytecode": {
    "object": "0x60c060405234801561001057600080fd5b506040516106ce3803806106ce83398101604081905261002f9161007d565b600080546001600160a01b0319166001600160a01b0394851617905591166080526001600160401b031660a0526100d1565b80516001600160a01b038116811461007857600080fd5b919050565b60008060006060848603121561009257600080fd5b61009b84610061565b92506100a960208501610061565b60408501519092506001600160401b03811681146100c657600080fd5b809150509250925092565b60805160a0516105da6100f46000396000605101526000608701526105da6000f3fe608060405234801561001057600080fd5b506004361061002b5760003560e01c8063e5aed28a14610030575b600080fd5b61003861004a565b60405190815260200160405180910390f35b60006100e97f0000000000000000000000000000000000000000000000000000000000000000733e62dff1cb16f2902bc7e7400d611ccfc13689817f00000000000000000000000000000000000000000000000000000000000000006040516020016100d5906020808252600b908201526a12195b1b1bc815dbdc9b1960aa1b604082015260600190565b6040516020818303038152906040526100ee565b905090565b6000806100fc858486610320565b600080546040516320487ded60e01b815292935090916001600160a01b03909116906320487ded90610134908a908690600401610475565b602060405180830381865afa158015610151573d6000803e3d6000fd5b505050506040513d601f19601f82011682018060405250810190610175919061054f565b6040516370a0823160e01b81523060048201529091506001600160a01b038616906370a0823190602401602060405180830381865afa1580156101bc573d6000803e3d6000fd5b505050506040513d601f19601f820116820180604052508101906101e0919061054f565b8111156101ec57600080fd5b60005460405163095ea7b360e01b81526001600160a01b039182166004820152602481018390529086169063095ea7b3906044016020604051808303816000875af115801561023f573d6000803e3d6000fd5b505050506040513d601f19601f820116820180604052508101906102639190610568565b50600080546040516396f4e9f960e01b81526001600160a01b03909116906396f4e9f990610297908b908790600401610475565b6020604051808303816000875af11580156102b6573d6000803e3d6000fd5b505050506040513d601f19601f820116820180604052508101906102da919061054f565b90507f54791b38f3859327992a1ca0590ad3c0f08feba98d1a4f56ab0dca74d203392a8160405161030d91815260200190565b60405180910390a1979650505050505050565b61035b6040518060a0016040528060608152602001606081526020016060815260200160006001600160a01b03168152602001606081525090565b6040805160a081019091526001600160a01b03851660c08201526000908060e081016040516020818303038152906040528152602001856040516020016103a29190610591565b60408051601f19818403018152919052815260200160006040519080825280602002602001820160405280156103fe57816020015b60408051808201909152600080825260208201528152602001906001900390816103d75790505b5081526001600160a01b03851660208083019190915260408051918201815260008252909101529150509392505050565b6000815180845260005b8181101561045557602081850181015186830182015201610439565b506000602082860101526020601f19601f83011685010191505092915050565b6000604067ffffffffffffffff8516835260208181850152845160a0838601526104a260e086018261042f565b905081860151603f19808784030160608801526104bf838361042f565b88860151888203830160808a01528051808352908601945060009350908501905b8084101561051257845180516001600160a01b03168352860151868301529385019360019390930192908601906104e0565b5060608901516001600160a01b031660a08901526080890151888203830160c08a01529550610541818761042f565b9a9950505050505050505050565b60006020828403121561056157600080fd5b5051919050565b60006020828403121561057a57600080fd5b8151801515811461058a57600080fd5b9392505050565b60208152600061058a602083018461042f56fea26469706673582212203e47bfbf999142a3c4dacde4ddcae5334dbdf0a106e581e4df312988fd30cf4764736f6c63430008130033",
    "linkReferences": {}
  },
  "methodIdentifiers": {
    "sendMessage()": "e5aed28a"
  },
  "id": 4
}