{
  "abi": [
    {
      "inputs": [],
      "name": "InsufficientFeeTokenAmount",
      "type": "error"
    },
    {
      "inputs": [],
      "name": "InvalidMsgValue",
      "type": "error"
    },
    {
      "inputs": [
        {
          "internalType": "uint64",
          "name": "destChainSelector",
          "type": "uint64"
        }
      ],
      "name": "UnsupportedDestinationChain",
      "type": "error"
    },
    {
      "inputs": [
        {
          "internalType": "uint64",
          "name": "destinationChainSelector",
          "type": "uint64"
        },
        {
          "components": [
            {
              "internalType": "bytes",
              "name": "receiver",
              "type": "bytes"
            },
            {
              "internalType": "bytes",
              "name": "data",
              "type": "bytes"
            },
            {
              "components": [
                {
                  "internalType": "address",
                  "name": "token",
                  "type": "address"
                },
                {
                  "internalType": "uint256",
                  "name": "amount",
                  "type": "uint256"
                }
              ],
              "internalType": "struct Client.EVMTokenAmount[]",
              "name": "tokenAmounts",
              "type": "tuple[]"
            },
            {
              "internalType": "address",
              "name": "feeToken",
              "type": "address"
            },
            {
              "internalType": "bytes",
              "name": "extraArgs",
              "type": "bytes"
            }
          ],
          "internalType": "struct Client.EVM2AnyMessage",
          "name": "message",
          "type": "tuple"
        }
      ],
      "name": "ccipSend",
      "outputs": [
        {
          "internalType": "bytes32",
          "name": "",
          "type": "bytes32"
        }
      ],
      "stateMutability": "payable",
      "type": "function"
    },
    {
      "inputs": [
        {
          "internalType": "uint64",
          "name": "destinationChainSelector",
          "type": "uint64"
        },
        {
          "components": [
            {
              "internalType": "bytes",
              "name": "receiver",
              "type": "bytes"
            },
            {
              "internalType": "bytes",
              "name": "data",
              "type": "bytes"
            },
            {
              "components": [
                {
                  "internalType": "address",
                  "name": "token",
                  "type": "address"
                },
                {
                  "internalType": "uint256",
                  "name": "amount",
                  "type": "uint256"
                }
              ],
              "internalType": "struct Client.EVMTokenAmount[]",
              "name": "tokenAmounts",
              "type": "tuple[]"
            },
            {
              "internalType": "address",
              "name": "feeToken",
              "type": "address"
            },
            {
              "internalType": "bytes",
              "name": "extraArgs",
              "type": "bytes"
            }
          ],
          "internalType": "struct Client.EVM2AnyMessage",
          "name": "message",
          "type": "tuple"
        }
      ],
      "name": "getFee",
      "outputs": [
        {
          "internalType": "uint256",
          "name": "fee",
          "type": "uint256"
        }
      ],
      "stateMutability": "view",
      "type": "function"
    },
    {
      "inputs": [
        {
          "internalType": "uint64",
          "name": "chainSelector",
          "type": "uint64"
        }
      ],
      "name": "getSupportedTokens",
      "outputs": [
        {
          "internalType": "address[]",
          "name": "tokens",
          "type": "address[]"
        }
      ],
      "stateMutability": "view",
      "type": "function"
    },
    {
      "inputs": [
        {
          "internalType": "uint64",
          "name": "chainSelector",
          "type": "uint64"
        }
      ],
      "name": "isChainSupported",
      "outputs": [
        {
          "internalType": "bool",
          "name": "supported",
          "type": "bool"
        }
      ],
      "stateMutability": "view",
      "type": "function"
    }
  ],
  "bytecode": {
    "object": "0x6080604052600080546001600160401b03191662bc614e1790556103e8600155600f60025534801561003057600080fd5b50610719806100406000396000f3fe60806040526004361061003f5760003560e01c806320487ded1461004457806396f4e9f914610077578063a48a90581461008a578063fbca3b74146100ba575b600080fd5b34801561005057600080fd5b5061006461005f36600461046a565b6100e7565b6040519081526020015b60405180910390f35b610064610085366004610566565b61016c565b34801561009657600080fd5b506100aa6100a53660046105ba565b6101e3565b604051901515815260200161006e565b3480156100c657600080fd5b506100da6100d53660046105ba565b61020a565b60405161006e91906105d5565b600080546001600160401b038481169116146101445760405162461bcd60e51b8152602060048201526017602482015276496e76616c696420636861696e2073656c6563746f722160481b60448201526064015b60405180910390fd5b6020820151516002546101579082610638565b600154610164919061064f565b949350505050565b600080546001600160401b038481169116146101c45760405162461bcd60e51b8152602060048201526017602482015276496e76616c696420636861696e2073656c6563746f722160481b604482015260640161013b565b6101d16020830183610662565b6101da916106af565b90505b92915050565b600080546001600160401b039081169083160361020257506001919050565b506000919050565b6000546060906001600160401b039081169083160361027d576040805160018082528183019092529060208083019080368337019050509050600081600081518110610258576102586106cd565b60200260200101906001600160a01b031690816001600160a01b031681525050919050565b506040805160008152602081019091525b919050565b80356001600160401b038116811461028e57600080fd5b634e487b7160e01b600052604160045260246000fd5b604080519081016001600160401b03811182821017156102e2576102e26102aa565b60405290565b60405160a081016001600160401b03811182821017156102e2576102e26102aa565b604051601f8201601f191681016001600160401b0381118282101715610332576103326102aa565b604052919050565b600082601f83011261034b57600080fd5b81356001600160401b03811115610364576103646102aa565b610377601f8201601f191660200161030a565b81815284602083860101111561038c57600080fd5b816020850160208301376000918101602001919091529392505050565b80356001600160a01b038116811461028e57600080fd5b600082601f8301126103d157600080fd5b813560206001600160401b038211156103ec576103ec6102aa565b6103fa818360051b0161030a565b82815260069290921b8401810191818101908684111561041957600080fd5b8286015b8481101561045f57604081890312156104365760008081fd5b61043e6102c0565b610447826103a9565b8152818501358582015283529183019160400161041d565b509695505050505050565b6000806040838503121561047d57600080fd5b61048683610293565b915060208301356001600160401b03808211156104a257600080fd5b9084019060a082870312156104b657600080fd5b6104be6102e8565b8235828111156104cd57600080fd5b6104d98882860161033a565b8252506020830135828111156104ee57600080fd5b6104fa8882860161033a565b60208301525060408301358281111561051257600080fd5b61051e888286016103c0565b604083015250610530606084016103a9565b606082015260808301358281111561054757600080fd5b6105538882860161033a565b6080830152508093505050509250929050565b6000806040838503121561057957600080fd5b61058283610293565b915060208301356001600160401b0381111561059d57600080fd5b830160a081860312156105af57600080fd5b809150509250929050565b6000602082840312156105cc57600080fd5b6101da82610293565b6020808252825182820181905260009190848201906040850190845b818110156106165783516001600160a01b0316835292840192918401916001016105f1565b50909695505050505050565b634e487b7160e01b600052601160045260246000fd5b80820281158282048414176101dd576101dd610622565b808201808211156101dd576101dd610622565b6000808335601e1984360301811261067957600080fd5b8301803591506001600160401b0382111561069357600080fd5b6020019150368190038213156106a857600080fd5b9250929050565b803560208310156101dd57600019602084900360031b1b1692915050565b634e487b7160e01b600052603260045260246000fdfea2646970667358221220205f42ac46ff20fa2f7e42223127fa36255c84fcad6c1f096af8d1716e1da9b064736f6c63430008130033",
    "linkReferences": {}
  },
  "methodIdentifiers": {
    "ccipSend(uint64,(bytes,bytes,(address,uint256)[],address,bytes))": "96f4e9f9",
    "getFee(uint64,(bytes,bytes,(address,uint256)[],address,bytes))": "20487ded",
    "getSupportedTokens(uint64)": "fbca3b74",
    "isChainSupported(uint64)": "a48a9058"
  },
  "id": 30
}